{
  "_format": "hh-sol-artifact-1",
  "contractName": "DDManager",
  "sourceName": "contracts/DDManager.sol",
  "abi": [
    {
      "inputs": [
        {
          "internalType": "address",
          "name": "_walletAddress",
          "type": "address"
        }
      ],
      "stateMutability": "nonpayable",
      "type": "constructor"
    },
    {
      "anonymous": false,
      "inputs": [
        {
          "indexed": true,
          "internalType": "address",
          "name": "sender",
          "type": "address"
        },
        {
          "indexed": false,
          "internalType": "address",
          "name": "key",
          "type": "address"
        }
      ],
      "name": "LogCreateDirectDonation",
      "type": "event"
    },
    {
      "anonymous": false,
      "inputs": [
        {
          "indexed": true,
          "internalType": "address",
          "name": "sender",
          "type": "address"
        },
        {
          "indexed": false,
          "internalType": "address",
          "name": "key",
          "type": "address"
        }
      ],
      "name": "LogRemoveDirectDonation",
      "type": "event"
    },
    {
      "anonymous": false,
      "inputs": [
        {
          "indexed": true,
          "internalType": "address",
          "name": "previousOwner",
          "type": "address"
        },
        {
          "indexed": true,
          "internalType": "address",
          "name": "newOwner",
          "type": "address"
        }
      ],
      "name": "OwnershipTransferred",
      "type": "event"
    },
    {
      "inputs": [],
      "name": "createDirectDonation",
      "outputs": [
        {
          "internalType": "address",
          "name": "",
          "type": "address"
        }
      ],
      "stateMutability": "nonpayable",
      "type": "function"
    },
    {
      "inputs": [
        {
          "internalType": "uint256",
          "name": "index",
          "type": "uint256"
        }
      ],
      "name": "getDirectDonationAtIndex",
      "outputs": [
        {
          "internalType": "address",
          "name": "",
          "type": "address"
        }
      ],
      "stateMutability": "view",
      "type": "function"
    },
    {
      "inputs": [],
      "name": "getDirectDonationCount",
      "outputs": [
        {
          "internalType": "uint256",
          "name": "",
          "type": "uint256"
        }
      ],
      "stateMutability": "view",
      "type": "function"
    },
    {
      "inputs": [],
      "name": "getDirectDonationList",
      "outputs": [
        {
          "internalType": "address[]",
          "name": "",
          "type": "address[]"
        }
      ],
      "stateMutability": "view",
      "type": "function"
    },
    {
      "inputs": [],
      "name": "owner",
      "outputs": [
        {
          "internalType": "address",
          "name": "",
          "type": "address"
        }
      ],
      "stateMutability": "view",
      "type": "function"
    },
    {
      "inputs": [
        {
          "internalType": "address",
          "name": "key",
          "type": "address"
        }
      ],
      "name": "removeDirectDonation",
      "outputs": [],
      "stateMutability": "nonpayable",
      "type": "function"
    },
    {
      "inputs": [],
      "name": "renounceOwnership",
      "outputs": [],
      "stateMutability": "nonpayable",
      "type": "function"
    },
    {
      "inputs": [
        {
          "internalType": "address",
          "name": "newOwner",
          "type": "address"
        }
      ],
      "name": "transferOwnership",
      "outputs": [],
      "stateMutability": "nonpayable",
      "type": "function"
    }
  ],
  "bytecode": "0x60806040523480156200001157600080fd5b5060405162004677380380620046778339818101604052810190620000379190620001aa565b620000576200004b6200007460201b60201c565b6200007c60201b60201c565b6200006d816200007c60201b620004041760201c565b50620001dc565b600033905090565b60008060009054906101000a900473ffffffffffffffffffffffffffffffffffffffff169050816000806101000a81548173ffffffffffffffffffffffffffffffffffffffff021916908373ffffffffffffffffffffffffffffffffffffffff1602179055508173ffffffffffffffffffffffffffffffffffffffff168173ffffffffffffffffffffffffffffffffffffffff167f8be0079c531659141344cd1fd0a4f28419497f9722a3daafe3b4186f6b6457e060405160405180910390a35050565b600080fd5b600073ffffffffffffffffffffffffffffffffffffffff82169050919050565b6000620001728262000145565b9050919050565b620001848162000165565b81146200019057600080fd5b50565b600081519050620001a48162000179565b92915050565b600060208284031215620001c357620001c262000140565b5b6000620001d38482850162000193565b91505092915050565b61448b80620001ec6000396000f3fe60806040523480156200001157600080fd5b5060043610620000945760003560e01c80638da5cb5b11620000635780638da5cb5b146200010b578063b533945d146200012d578063e5a97d31146200014d578063f2fde38b14620001835762000094565b80634ab0a9f81462000099578063715018a614620000bb5780637186372714620000c757806373085d2614620000e9575b600080fd5b620000a3620001a3565b604051620000b2919062000b2c565b60405180910390f35b620000c562000262565b005b620000d16200027a565b604051620000e0919062000c17565b60405180910390f35b620000f362000297565b60405162000102919062000c56565b60405180910390f35b62000115620002b4565b60405162000124919062000b2c565b60405180910390f35b6200014b600480360381019062000145919062000ca9565b620002dd565b005b6200016b600480360381019062000165919062000d0c565b62000350565b6040516200017a919062000b2c565b60405180910390f35b620001a160048036038101906200019b919062000ca9565b62000379565b005b6000620001af620004c8565b6000620001bb620002b4565b604051620001c99062000ad9565b620001d5919062000b2c565b604051809103906000f080158015620001f2573d6000803e3d6000fd5b5090506200020b8160016200054d90919063ffffffff16565b3373ffffffffffffffffffffffffffffffffffffffff167f089aeb21943a056b29ec2d8b6f6a6c4462bd8060828b1f28060335b4729efb218260405162000253919062000b2c565b60405180910390a28091505090565b6200026c620004c8565b62000278600062000404565b565b606062000286620004c8565b620002926001620006d3565b905090565b6000620002a3620004c8565b620002af600162000767565b905090565b60008060009054906101000a900473ffffffffffffffffffffffffffffffffffffffff16905090565b620002e7620004c8565b620002fd8160016200077890919063ffffffff16565b3373ffffffffffffffffffffffffffffffffffffffff167ff51a2555b2a7d99aeeed53d6890f18b8d4d737f3efaf559fea6d7abd39ea01008260405162000345919062000b2c565b60405180910390a250565b60006200035c620004c8565b62000372826001620009ab90919063ffffffff16565b9050919050565b62000383620004c8565b600073ffffffffffffffffffffffffffffffffffffffff168173ffffffffffffffffffffffffffffffffffffffff161415620003f6576040517f08c379a0000000000000000000000000000000000000000000000000000000008152600401620003ed9062000dc5565b60405180910390fd5b620004018162000404565b50565b60008060009054906101000a900473ffffffffffffffffffffffffffffffffffffffff169050816000806101000a81548173ffffffffffffffffffffffffffffffffffffffff021916908373ffffffffffffffffffffffffffffffffffffffff1602179055508173ffffffffffffffffffffffffffffffffffffffff168173ffffffffffffffffffffffffffffffffffffffff167f8be0079c531659141344cd1fd0a4f28419497f9722a3daafe3b4186f6b6457e060405160405180910390a35050565b620004d2620009f9565b73ffffffffffffffffffffffffffffffffffffffff16620004f2620002b4565b73ffffffffffffffffffffffffffffffffffffffff16146200054b576040517f08c379a0000000000000000000000000000000000000000000000000000000008152600401620005429062000e37565b60405180910390fd5b565b600073ffffffffffffffffffffffffffffffffffffffff168173ffffffffffffffffffffffffffffffffffffffff161415620005c0576040517f08c379a0000000000000000000000000000000000000000000000000000000008152600401620005b79062000ecf565b60405180910390fd5b620005cc828262000a01565b156200060f576040517f08c379a0000000000000000000000000000000000000000000000000000000008152600401620006069062000f8d565b60405180910390fd5b81600101819080600181540180825580915050600190039060005260206000200160009091909190916101000a81548173ffffffffffffffffffffffffffffffffffffffff021916908373ffffffffffffffffffffffffffffffffffffffff160217905550600182600101805490506200068a919062000fde565b8260000160008373ffffffffffffffffffffffffffffffffffffffff1673ffffffffffffffffffffffffffffffffffffffff168152602001908152602001600020819055505050565b6060816001018054806020026020016040519081016040528092919081815260200182805480156200075b57602002820191906000526020600020905b8160009054906101000a900473ffffffffffffffffffffffffffffffffffffffff1673ffffffffffffffffffffffffffffffffffffffff168152602001906001019080831162000710575b50505050509050919050565b600081600101805490509050919050565b62000784828262000a01565b620007c6576040517f08c379a0000000000000000000000000000000000000000000000000000000008152600401620007bd906200108f565b60405180910390fd5b6000826001016001620007d98562000767565b620007e5919062000fde565b81548110620007f957620007f8620010b1565b5b9060005260206000200160009054906101000a900473ffffffffffffffffffffffffffffffffffffffff16905060008360000160008473ffffffffffffffffffffffffffffffffffffffff1673ffffffffffffffffffffffffffffffffffffffff168152602001908152602001600020549050808460000160008473ffffffffffffffffffffffffffffffffffffffff1673ffffffffffffffffffffffffffffffffffffffff1681526020019081526020016000208190555081846001018281548110620008cc57620008cb620010b1565b5b9060005260206000200160006101000a81548173ffffffffffffffffffffffffffffffffffffffff021916908373ffffffffffffffffffffffffffffffffffffffff1602179055508360000160008473ffffffffffffffffffffffffffffffffffffffff1673ffffffffffffffffffffffffffffffffffffffff168152602001908152602001600020600090558360010180548062000970576200096f620010e0565b5b6001900381819060005260206000200160006101000a81549073ffffffffffffffffffffffffffffffffffffffff0219169055905550505050565b6000826001018281548110620009c657620009c5620010b1565b5b9060005260206000200160009054906101000a900473ffffffffffffffffffffffffffffffffffffffff16905092915050565b600033905090565b6000808360010180549050141562000a1d576000905062000ad3565b8173ffffffffffffffffffffffffffffffffffffffff16836001018460000160008573ffffffffffffffffffffffffffffffffffffffff1673ffffffffffffffffffffffffffffffffffffffff168152602001908152602001600020548154811062000a8e5762000a8d620010b1565b5b9060005260206000200160009054906101000a900473ffffffffffffffffffffffffffffffffffffffff1673ffffffffffffffffffffffffffffffffffffffff161490505b92915050565b613346806200111083390190565b600073ffffffffffffffffffffffffffffffffffffffff82169050919050565b600062000b148262000ae7565b9050919050565b62000b268162000b07565b82525050565b600060208201905062000b43600083018462000b1b565b92915050565b600081519050919050565b600082825260208201905092915050565b6000819050602082019050919050565b62000b808162000b07565b82525050565b600062000b94838362000b75565b60208301905092915050565b6000602082019050919050565b600062000bba8262000b49565b62000bc6818562000b54565b935062000bd38362000b65565b8060005b8381101562000c0a57815162000bee888262000b86565b975062000bfb8362000ba0565b92505060018101905062000bd7565b5085935050505092915050565b6000602082019050818103600083015262000c33818462000bad565b905092915050565b6000819050919050565b62000c508162000c3b565b82525050565b600060208201905062000c6d600083018462000c45565b92915050565b600080fd5b62000c838162000b07565b811462000c8f57600080fd5b50565b60008135905062000ca38162000c78565b92915050565b60006020828403121562000cc25762000cc162000c73565b5b600062000cd28482850162000c92565b91505092915050565b62000ce68162000c3b565b811462000cf257600080fd5b50565b60008135905062000d068162000cdb565b92915050565b60006020828403121562000d255762000d2462000c73565b5b600062000d358482850162000cf5565b91505092915050565b600082825260208201905092915050565b7f4f776e61626c653a206e6577206f776e657220697320746865207a65726f206160008201527f6464726573730000000000000000000000000000000000000000000000000000602082015250565b600062000dad60268362000d3e565b915062000dba8262000d4f565b604082019050919050565b6000602082019050818103600083015262000de08162000d9e565b9050919050565b7f4f776e61626c653a2063616c6c6572206973206e6f7420746865206f776e6572600082015250565b600062000e1f60208362000d3e565b915062000e2c8262000de7565b602082019050919050565b6000602082019050818103600083015262000e528162000e10565b9050919050565b7f556e6f7264657265644b65795365742831303029202d204b65792063616e6e6f60008201527f7420626520307830000000000000000000000000000000000000000000000000602082015250565b600062000eb760288362000d3e565b915062000ec48262000e59565b604082019050919050565b6000602082019050818103600083015262000eea8162000ea8565b9050919050565b7f556e6f726465726564416464726573735365742831303129202d20416464726560008201527f737320286b65792920616c72656164792065786973747320696e20746865207360208201527f65742e0000000000000000000000000000000000000000000000000000000000604082015250565b600062000f7560438362000d3e565b915062000f828262000ef1565b606082019050919050565b6000602082019050818103600083015262000fa88162000f66565b9050919050565b7f4e487b7100000000000000000000000000000000000000000000000000000000600052601160045260246000fd5b600062000feb8262000c3b565b915062000ff88362000c3b565b9250828210156200100e576200100d62000faf565b5b828203905092915050565b7f556e6f7264657265644b65795365742831303229202d2041646472657373202860008201527f6b65792920646f6573206e6f7420657869737420696e20746865207365742e00602082015250565b600062001077603f8362000d3e565b9150620010848262001019565b604082019050919050565b60006020820190508181036000830152620010aa8162001068565b9050919050565b7f4e487b7100000000000000000000000000000000000000000000000000000000600052603260045260246000fd5b7f4e487b7100000000000000000000000000000000000000000000000000000000600052603160045260246000fdfe60806040523480156200001157600080fd5b5060405162003346380380620033468339818101604052810190620000379190620001e7565b620000576200004b620000b160201b60201c565b620000b960201b60201c565b6200006d81620000b960201b620017651760201c565b6000600660006101000a81548163ffffffff021916908363ffffffff1602179055506000600660046101000a81548160ff0219169083151502179055505062000219565b600033905090565b60008060009054906101000a900473ffffffffffffffffffffffffffffffffffffffff169050816000806101000a81548173ffffffffffffffffffffffffffffffffffffffff021916908373ffffffffffffffffffffffffffffffffffffffff1602179055508173ffffffffffffffffffffffffffffffffffffffff168173ffffffffffffffffffffffffffffffffffffffff167f8be0079c531659141344cd1fd0a4f28419497f9722a3daafe3b4186f6b6457e060405160405180910390a35050565b600080fd5b600073ffffffffffffffffffffffffffffffffffffffff82169050919050565b6000620001af8262000182565b9050919050565b620001c181620001a2565b8114620001cd57600080fd5b50565b600081519050620001e181620001b6565b92915050565b6000602082840312156200020057620001ff6200017d565b5b60006200021084828501620001d0565b91505092915050565b61311d80620002296000396000f3fe60806040526004361061014b5760003560e01c8063a7619e89116100b6578063e69d849d1161006f578063e69d849d146103f4578063ed88c68e1461041d578063f2fde38b14610427578063f75d19b914610450578063fc9ffe0214610479578063fec08d7e146104a45761014b565b8063a7619e89146102fa578063b997083814610325578063bfab3db91461034e578063c58156e014610365578063cf386a591461038e578063dd80fbd4146103cb5761014b565b80636bdebcc9116101085780636bdebcc914610238578063715018a61461024f57806372759aa714610266578063869e1a131461028f5780638da5cb5b146102a6578063a620b119146102d15761014b565b8063344974d9146101505780633b3790df1461017b57806348b77f75146101a4578063510791e6146101cd5780635137a7da146101e457806357fbb9df1461020f575b600080fd5b34801561015c57600080fd5b506101656104cd565b6040516101729190612289565b60405180910390f35b34801561018757600080fd5b506101a2600480360381019061019d9190612318565b6104de565b005b3480156101b057600080fd5b506101cb60048036038101906101c6919061238e565b610653565b005b3480156101d957600080fd5b506101e261081d565b005b3480156101f057600080fd5b506101f9610914565b60405161020691906123d6565b60405180910390f35b34801561021b57600080fd5b50610236600480360381019061023191906123f1565b610927565b005b34801561024457600080fd5b5061024d610ab7565b005b34801561025b57600080fd5b50610264610b13565b005b34801561027257600080fd5b5061028d600480360381019061028891906123f1565b610b27565b005b34801561029b57600080fd5b506102a4610b46565b005b3480156102b257600080fd5b506102bb610bb3565b6040516102c8919061242d565b60405180910390f35b3480156102dd57600080fd5b506102f860048036038101906102f39190612318565b610bdc565b005b34801561030657600080fd5b5061030f610de2565b60405161031c9190612457565b60405180910390f35b34801561033157600080fd5b5061034c6004803603810190610347919061249e565b610e04565b005b34801561035a57600080fd5b50610363610e58565b005b34801561037157600080fd5b5061038c600480360381019061038791906123f1565b610f6a565b005b34801561039a57600080fd5b506103b560048036038101906103b091906123f1565b61110c565b6040516103c29190612457565b60405180910390f35b3480156103d757600080fd5b506103f260048036038101906103ed91906123f1565b6111c0565b005b34801561040057600080fd5b5061041b600480360381019061041691906124cb565b6111df565b005b6104256112de565b005b34801561043357600080fd5b5061044e600480360381019061044991906123f1565b61133d565b005b34801561045c57600080fd5b5061047760048036038101906104729190612318565b6113c1565b005b34801561048557600080fd5b5061048e611593565b60405161049b9190612289565b60405180910390f35b3480156104b057600080fd5b506104cb60048036038101906104c691906124cb565b6115ac565b005b60606104d96003611829565b905090565b6104e66118bb565b633b9aca0081600660009054906101000a900463ffffffff16610509919061253a565b63ffffffff161115610550576040517f08c379a0000000000000000000000000000000000000000000000000000000008152600401610547906125f7565b60405180910390fd5b61056482600161193990919063ffffffff16565b80600560008473ffffffffffffffffffffffffffffffffffffffff1673ffffffffffffffffffffffffffffffffffffffff16815260200190815260200160002060006101000a81548163ffffffff021916908363ffffffff16021790555080600660008282829054906101000a900463ffffffff166105e3919061253a565b92506101000a81548163ffffffff021916908363ffffffff1602179055508173ffffffffffffffffffffffffffffffffffffffff167fcf3b976d0436b612337e2db4f48172abc8af16d3c5cd009c898bd74339300d36826040516106479190612457565b60405180910390a25050565b61065b6118bb565b60008080600090505b61066e6001611ab5565b8163ffffffff161015610817576106958163ffffffff166001611ac690919063ffffffff16565b9150600560008373ffffffffffffffffffffffffffffffffffffffff1673ffffffffffffffffffffffffffffffffffffffff16815260200190815260200160002060009054906101000a900463ffffffff1663ffffffff16633b9aca00856106fd9190612646565b6107079190612677565b925060008273ffffffffffffffffffffffffffffffffffffffff168460405161072f90612702565b60006040518083038185875af1925050503d806000811461076c576040519150601f19603f3d011682016040523d82523d6000602084013e610771565b606091505b50509050806107b5576040517f08c379a00000000000000000000000000000000000000000000000000000000081526004016107ac90612763565b60405180910390fd5b8273ffffffffffffffffffffffffffffffffffffffff167f901d6574876f702144893b5615ac1662cf8fc3af9a789d55318523582ea30c2f856040516107fb9190612792565b60405180910390a250808061080f906127ad565b915050610664565b50505050565b6108256118bb565b61082e47610653565b60008060005b61083e6003611ab5565b8163ffffffff16101561090f576108658163ffffffff166003611ac690919063ffffffff16565b92508291506108fc838373ffffffffffffffffffffffffffffffffffffffff166370a08231306040518263ffffffff1660e01b81526004016108a7919061242d565b60206040518083038186803b1580156108bf57600080fd5b505afa1580156108d3573d6000803e3d6000fd5b505050506040513d601f19601f820116820180604052508101906108f791906127ef565b6115ac565b8080610907906127ad565b915050610834565b505050565b600660049054906101000a900460ff1681565b61092f6118bb565b610943816003611b1190919063ffffffff16565b610982576040517f08c379a000000000000000000000000000000000000000000000000000000000815260040161097990612868565b60405180910390fd5b600081905060008173ffffffffffffffffffffffffffffffffffffffff166370a08231306040518263ffffffff1660e01b81526004016109c2919061242d565b60206040518083038186803b1580156109da57600080fd5b505afa1580156109ee573d6000803e3d6000fd5b505050506040513d601f19601f82011682018060405250810190610a1291906127ef565b9050610a46610a1f610bb3565b828473ffffffffffffffffffffffffffffffffffffffff16611be49092919063ffffffff16565b610a4e610bb3565b73ffffffffffffffffffffffffffffffffffffffff168373ffffffffffffffffffffffffffffffffffffffff167f9060f013e2325841ebb42f269dde3d9c3cfdd43631c1234791bbab7ae168e59e83604051610aaa9190612792565b60405180910390a3505050565b610abf6118bb565b610ac7610b46565b7feb00b8082c686f550382b8ee41b26cf3316fb776751d374085547b4421f44e4a60405160405180910390a1610afb610bb3565b73ffffffffffffffffffffffffffffffffffffffff16ff5b610b1b6118bb565b610b256000611765565b565b610b2f6118bb565b610b4381600361193990919063ffffffff16565b50565b610b4e6118bb565b610b56610e58565b60008060005b610b666003611ab5565b8163ffffffff161015610bae57610b8d8163ffffffff166003611ac690919063ffffffff16565b9250829150610b9b83610927565b8080610ba6906127ad565b915050610b5c565b505050565b60008060009054906101000a900473ffffffffffffffffffffffffffffffffffffffff16905090565b610be46118bb565b610bf8826001611b1190919063ffffffff16565b610c37576040517f08c379a0000000000000000000000000000000000000000000000000000000008152600401610c2e906128fa565b60405180910390fd5b600560008373ffffffffffffffffffffffffffffffffffffffff1673ffffffffffffffffffffffffffffffffffffffff16815260200190815260200160002060009054906101000a900463ffffffff1663ffffffff168163ffffffff161115610cd5576040517f08c379a0000000000000000000000000000000000000000000000000000000008152600401610ccc9061298c565b60405180910390fd5b80600560008473ffffffffffffffffffffffffffffffffffffffff1673ffffffffffffffffffffffffffffffffffffffff16815260200190815260200160002060008282829054906101000a900463ffffffff16610d3391906129ac565b92506101000a81548163ffffffff021916908363ffffffff16021790555080600660008282829054906101000a900463ffffffff16610d7291906129ac565b92506101000a81548163ffffffff021916908363ffffffff1602179055508173ffffffffffffffffffffffffffffffffffffffff167fc71024bd021900ec858a28778c77898b9874ba5e2dd0b4406b76ca94b354787f82604051610dd69190612457565b60405180910390a25050565b6000610dec6118bb565b600660009054906101000a900463ffffffff16905090565b80600660046101000a81548160ff0219169083151502179055507ff1f62f56072e506df20ce469ef2944703cab8eec0eae0beaede789529666b1f481604051610e4d91906123d6565b60405180910390a150565b610e606118bb565b600047905060003373ffffffffffffffffffffffffffffffffffffffff1682604051610e8b90612702565b60006040518083038185875af1925050503d8060008114610ec8576040519150601f19603f3d011682016040523d82523d6000602084013e610ecd565b606091505b5050905080610f11576040517f08c379a0000000000000000000000000000000000000000000000000000000008152600401610f0890612a2c565b60405180910390fd5b610f19610bb3565b73ffffffffffffffffffffffffffffffffffffffff167fbf4c5aa66ed18442bd8e8e3876d36dcd98043eedb61fee837986cd404d737c4d83604051610f5e9190612792565b60405180910390a25050565b610f726118bb565b610f86816001611b1190919063ffffffff16565b610fc5576040517f08c379a0000000000000000000000000000000000000000000000000000000008152600401610fbc906128fa565b60405180910390fd5b600560008273ffffffffffffffffffffffffffffffffffffffff1673ffffffffffffffffffffffffffffffffffffffff16815260200190815260200160002060009054906101000a900463ffffffff16600660008282829054906101000a900463ffffffff1661103591906129ac565b92506101000a81548163ffffffff021916908363ffffffff1602179055506000600560008373ffffffffffffffffffffffffffffffffffffffff1673ffffffffffffffffffffffffffffffffffffffff16815260200190815260200160002060006101000a81548163ffffffff021916908363ffffffff1602179055506110c6816001611c6a90919063ffffffff16565b8073ffffffffffffffffffffffffffffffffffffffff167f0ef40da7dc54329cca1f256fe0f066828e31c12195219e718619fd40f7eaad9060405160405180910390a250565b60006111166118bb565b61112a826001611b1190919063ffffffff16565b611169576040517f08c379a0000000000000000000000000000000000000000000000000000000008152600401611160906128fa565b60405180910390fd5b600560008373ffffffffffffffffffffffffffffffffffffffff1673ffffffffffffffffffffffffffffffffffffffff16815260200190815260200160002060009054906101000a900463ffffffff169050919050565b6111c86118bb565b6111dc816003611c6a90919063ffffffff16565b50565b6111f3826003611b1190919063ffffffff16565b611232576040517f08c379a000000000000000000000000000000000000000000000000000000000815260040161122990612868565b60405180910390fd5b60008290506112643330848473ffffffffffffffffffffffffffffffffffffffff16611e8b909392919063ffffffff16565b8273ffffffffffffffffffffffffffffffffffffffff167f7d7a8a12946d8074e2e77b69daa2cd024bd2ffaea651a9194b0b347b17ac200f836040516112aa9190612792565b60405180910390a260001515600660049054906101000a900460ff16151514156112d9576112d883836115ac565b5b505050565b7f238397202cd1c526c4a92188dca9576aba56c3d627ee44f628b6dfd3ece543173460405161130d9190612792565b60405180910390a160001515600660049054906101000a900460ff161515141561133b5761133a34610653565b5b565b6113456118bb565b600073ffffffffffffffffffffffffffffffffffffffff168173ffffffffffffffffffffffffffffffffffffffff1614156113b5576040517f08c379a00000000000000000000000000000000000000000000000000000000081526004016113ac90612abe565b60405180910390fd5b6113be81611765565b50565b6113c96118bb565b6113dd826001611b1190919063ffffffff16565b61141c576040517f08c379a0000000000000000000000000000000000000000000000000000000008152600401611413906128fa565b60405180910390fd5b633b9aca0081600660009054906101000a900463ffffffff1661143f919061253a565b63ffffffff161115611486576040517f08c379a000000000000000000000000000000000000000000000000000000000815260040161147d906125f7565b60405180910390fd5b80600560008473ffffffffffffffffffffffffffffffffffffffff1673ffffffffffffffffffffffffffffffffffffffff16815260200190815260200160002060008282829054906101000a900463ffffffff166114e4919061253a565b92506101000a81548163ffffffff021916908363ffffffff16021790555080600660008282829054906101000a900463ffffffff16611523919061253a565b92506101000a81548163ffffffff021916908363ffffffff1602179055508173ffffffffffffffffffffffffffffffffffffffff167f9eb78aabb1d6fda44c96a290fead067062b6341f0c0645620cfbb13acc5a90ab826040516115879190612457565b60405180910390a25050565b606061159d6118bb565b6115a76001611829565b905090565b6115b46118bb565b6115c8826003611b1190919063ffffffff16565b611607576040517f08c379a00000000000000000000000000000000000000000000000000000000081526004016115fe90612868565b60405180910390fd5b600082905060008080600090505b61161f6001611ab5565b8163ffffffff16101561175d576116468163ffffffff166001611ac690919063ffffffff16565b9150633b9aca00600560008473ffffffffffffffffffffffffffffffffffffffff1673ffffffffffffffffffffffffffffffffffffffff16815260200190815260200160002060009054906101000a900463ffffffff1663ffffffff16866116ae9190612677565b6116b89190612646565b92506116e582848673ffffffffffffffffffffffffffffffffffffffff16611be49092919063ffffffff16565b8173ffffffffffffffffffffffffffffffffffffffff168673ffffffffffffffffffffffffffffffffffffffff167fe153fce8c26fd3e4726a55a854fbfe4167f28f00a18bdfc9cc1e0107367989f6856040516117429190612792565b60405180910390a38080611755906127ad565b915050611615565b505050505050565b60008060009054906101000a900473ffffffffffffffffffffffffffffffffffffffff169050816000806101000a81548173ffffffffffffffffffffffffffffffffffffffff021916908373ffffffffffffffffffffffffffffffffffffffff1602179055508173ffffffffffffffffffffffffffffffffffffffff168173ffffffffffffffffffffffffffffffffffffffff167f8be0079c531659141344cd1fd0a4f28419497f9722a3daafe3b4186f6b6457e060405160405180910390a35050565b6060816001018054806020026020016040519081016040528092919081815260200182805480156118af57602002820191906000526020600020905b8160009054906101000a900473ffffffffffffffffffffffffffffffffffffffff1673ffffffffffffffffffffffffffffffffffffffff1681526020019060010190808311611865575b50505050509050919050565b6118c3611f14565b73ffffffffffffffffffffffffffffffffffffffff166118e1610bb3565b73ffffffffffffffffffffffffffffffffffffffff1614611937576040517f08c379a000000000000000000000000000000000000000000000000000000000815260040161192e90612b2a565b60405180910390fd5b565b600073ffffffffffffffffffffffffffffffffffffffff168173ffffffffffffffffffffffffffffffffffffffff1614156119a9576040517f08c379a00000000000000000000000000000000000000000000000000000000081526004016119a090612bbc565b60405180910390fd5b6119b38282611b11565b156119f3576040517f08c379a00000000000000000000000000000000000000000000000000000000081526004016119ea90612c74565b60405180910390fd5b81600101819080600181540180825580915050600190039060005260206000200160009091909190916101000a81548173ffffffffffffffffffffffffffffffffffffffff021916908373ffffffffffffffffffffffffffffffffffffffff16021790555060018260010180549050611a6c9190612c94565b8260000160008373ffffffffffffffffffffffffffffffffffffffff1673ffffffffffffffffffffffffffffffffffffffff168152602001908152602001600020819055505050565b600081600101805490509050919050565b6000826001018281548110611ade57611add612cc8565b5b9060005260206000200160009054906101000a900473ffffffffffffffffffffffffffffffffffffffff16905092915050565b60008083600101805490501415611b2b5760009050611bde565b8173ffffffffffffffffffffffffffffffffffffffff16836001018460000160008573ffffffffffffffffffffffffffffffffffffffff1673ffffffffffffffffffffffffffffffffffffffff1681526020019081526020016000205481548110611b9957611b98612cc8565b5b9060005260206000200160009054906101000a900473ffffffffffffffffffffffffffffffffffffffff1673ffffffffffffffffffffffffffffffffffffffff161490505b92915050565b611c658363a9059cbb60e01b8484604051602401611c03929190612cf7565b604051602081830303815290604052907bffffffffffffffffffffffffffffffffffffffffffffffffffffffff19166020820180517bffffffffffffffffffffffffffffffffffffffffffffffffffffffff8381831617835250505050611f1c565b505050565b611c748282611b11565b611cb3576040517f08c379a0000000000000000000000000000000000000000000000000000000008152600401611caa90612d92565b60405180910390fd5b6000826001016001611cc485611ab5565b611cce9190612c94565b81548110611cdf57611cde612cc8565b5b9060005260206000200160009054906101000a900473ffffffffffffffffffffffffffffffffffffffff16905060008360000160008473ffffffffffffffffffffffffffffffffffffffff1673ffffffffffffffffffffffffffffffffffffffff168152602001908152602001600020549050808460000160008473ffffffffffffffffffffffffffffffffffffffff1673ffffffffffffffffffffffffffffffffffffffff1681526020019081526020016000208190555081846001018281548110611daf57611dae612cc8565b5b9060005260206000200160006101000a81548173ffffffffffffffffffffffffffffffffffffffff021916908373ffffffffffffffffffffffffffffffffffffffff1602179055508360000160008473ffffffffffffffffffffffffffffffffffffffff1673ffffffffffffffffffffffffffffffffffffffff1681526020019081526020016000206000905583600101805480611e5057611e4f612db2565b5b6001900381819060005260206000200160006101000a81549073ffffffffffffffffffffffffffffffffffffffff0219169055905550505050565b611f0e846323b872dd60e01b858585604051602401611eac93929190612de1565b604051602081830303815290604052907bffffffffffffffffffffffffffffffffffffffffffffffffffffffff19166020820180517bffffffffffffffffffffffffffffffffffffffffffffffffffffffff8381831617835250505050611f1c565b50505050565b600033905090565b6000611f7e826040518060400160405280602081526020017f5361666545524332303a206c6f772d6c6576656c2063616c6c206661696c65648152508573ffffffffffffffffffffffffffffffffffffffff16611fe39092919063ffffffff16565b9050600081511115611fde5780806020019051810190611f9e9190612e2d565b611fdd576040517f08c379a0000000000000000000000000000000000000000000000000000000008152600401611fd490612ecc565b60405180910390fd5b5b505050565b6060611ff28484600085611ffb565b90509392505050565b606082471015612040576040517f08c379a000000000000000000000000000000000000000000000000000000000815260040161203790612f5e565b60405180910390fd5b6120498561210f565b612088576040517f08c379a000000000000000000000000000000000000000000000000000000000815260040161207f90612fca565b60405180910390fd5b6000808673ffffffffffffffffffffffffffffffffffffffff1685876040516120b19190613059565b60006040518083038185875af1925050503d80600081146120ee576040519150601f19603f3d011682016040523d82523d6000602084013e6120f3565b606091505b5091509150612103828286612132565b92505050949350505050565b6000808273ffffffffffffffffffffffffffffffffffffffff163b119050919050565b6060831561214257829050612192565b6000835111156121555782518084602001fd5b816040517f08c379a000000000000000000000000000000000000000000000000000000000815260040161218991906130c5565b60405180910390fd5b9392505050565b600081519050919050565b600082825260208201905092915050565b6000819050602082019050919050565b600073ffffffffffffffffffffffffffffffffffffffff82169050919050565b60006121f0826121c5565b9050919050565b612200816121e5565b82525050565b600061221283836121f7565b60208301905092915050565b6000602082019050919050565b600061223682612199565b61224081856121a4565b935061224b836121b5565b8060005b8381101561227c5781516122638882612206565b975061226e8361221e565b92505060018101905061224f565b5085935050505092915050565b600060208201905081810360008301526122a3818461222b565b905092915050565b600080fd5b6122b9816121e5565b81146122c457600080fd5b50565b6000813590506122d6816122b0565b92915050565b600063ffffffff82169050919050565b6122f5816122dc565b811461230057600080fd5b50565b600081359050612312816122ec565b92915050565b6000806040838503121561232f5761232e6122ab565b5b600061233d858286016122c7565b925050602061234e85828601612303565b9150509250929050565b6000819050919050565b61236b81612358565b811461237657600080fd5b50565b60008135905061238881612362565b92915050565b6000602082840312156123a4576123a36122ab565b5b60006123b284828501612379565b91505092915050565b60008115159050919050565b6123d0816123bb565b82525050565b60006020820190506123eb60008301846123c7565b92915050565b600060208284031215612407576124066122ab565b5b6000612415848285016122c7565b91505092915050565b612427816121e5565b82525050565b6000602082019050612442600083018461241e565b92915050565b612451816122dc565b82525050565b600060208201905061246c6000830184612448565b92915050565b61247b816123bb565b811461248657600080fd5b50565b60008135905061249881612472565b92915050565b6000602082840312156124b4576124b36122ab565b5b60006124c284828501612489565b91505092915050565b600080604083850312156124e2576124e16122ab565b5b60006124f0858286016122c7565b925050602061250185828601612379565b9150509250929050565b7f4e487b7100000000000000000000000000000000000000000000000000000000600052601160045260246000fd5b6000612545826122dc565b9150612550836122dc565b92508263ffffffff038211156125695761256861250b565b5b828201905092915050565b600082825260208201905092915050565b7f746f74616c2070657263656e7420636f756e742063616e6e6f7420706173732060008201527f313030252e000000000000000000000000000000000000000000000000000000602082015250565b60006125e1602583612574565b91506125ec82612585565b604082019050919050565b60006020820190508181036000830152612610816125d4565b9050919050565b7f4e487b7100000000000000000000000000000000000000000000000000000000600052601260045260246000fd5b600061265182612358565b915061265c83612358565b92508261266c5761266b612617565b5b828204905092915050565b600061268282612358565b915061268d83612358565b9250817fffffffffffffffffffffffffffffffffffffffffffffffffffffffffffffffff04831182151516156126c6576126c561250b565b5b828202905092915050565b600081905092915050565b50565b60006126ec6000836126d1565b91506126f7826126dc565b600082019050919050565b600061270d826126df565b9150819050919050565b7f4661696c656420746f2073656e64204574686572000000000000000000000000600082015250565b600061274d601483612574565b915061275882612717565b602082019050919050565b6000602082019050818103600083015261277c81612740565b9050919050565b61278c81612358565b82525050565b60006020820190506127a76000830184612783565b92915050565b60006127b8826122dc565b915063ffffffff8214156127cf576127ce61250b565b5b600182019050919050565b6000815190506127e981612362565b92915050565b600060208284031215612805576128046122ab565b5b6000612813848285016127da565b91505092915050565b7f546f6b656e206e6f74206163636570746564206279206f776e65722e00000000600082015250565b6000612852601c83612574565b915061285d8261281c565b602082019050919050565b6000602082019050818103600083015261288181612845565b9050919050565b7f6164647265737320686173206e6f74206265656e20616464656420746f20616c60008201527f6c6f636174696f6e2e0000000000000000000000000000000000000000000000602082015250565b60006128e4602983612574565b91506128ef82612888565b604082019050919050565b60006020820190508181036000830152612913816128d7565b9050919050565b7f63616e6e6f74207375627472616374206d6f7265207468616e20616c7265616460008201527f7920616c6c6f63617465642e0000000000000000000000000000000000000000602082015250565b6000612976602c83612574565b91506129818261291a565b604082019050919050565b600060208201905081810360008301526129a581612969565b9050919050565b60006129b7826122dc565b91506129c2836122dc565b9250828210156129d5576129d461250b565b5b828203905092915050565b7f4661696c656420746f2073656e642045746865722e0000000000000000000000600082015250565b6000612a16601583612574565b9150612a21826129e0565b602082019050919050565b60006020820190508181036000830152612a4581612a09565b9050919050565b7f4f776e61626c653a206e6577206f776e657220697320746865207a65726f206160008201527f6464726573730000000000000000000000000000000000000000000000000000602082015250565b6000612aa8602683612574565b9150612ab382612a4c565b604082019050919050565b60006020820190508181036000830152612ad781612a9b565b9050919050565b7f4f776e61626c653a2063616c6c6572206973206e6f7420746865206f776e6572600082015250565b6000612b14602083612574565b9150612b1f82612ade565b602082019050919050565b60006020820190508181036000830152612b4381612b07565b9050919050565b7f556e6f7264657265644b65795365742831303029202d204b65792063616e6e6f60008201527f7420626520307830000000000000000000000000000000000000000000000000602082015250565b6000612ba6602883612574565b9150612bb182612b4a565b604082019050919050565b60006020820190508181036000830152612bd581612b99565b9050919050565b7f556e6f726465726564416464726573735365742831303129202d20416464726560008201527f737320286b65792920616c72656164792065786973747320696e20746865207360208201527f65742e0000000000000000000000000000000000000000000000000000000000604082015250565b6000612c5e604383612574565b9150612c6982612bdc565b606082019050919050565b60006020820190508181036000830152612c8d81612c51565b9050919050565b6000612c9f82612358565b9150612caa83612358565b925082821015612cbd57612cbc61250b565b5b828203905092915050565b7f4e487b7100000000000000000000000000000000000000000000000000000000600052603260045260246000fd5b6000604082019050612d0c600083018561241e565b612d196020830184612783565b9392505050565b7f556e6f7264657265644b65795365742831303229202d2041646472657373202860008201527f6b65792920646f6573206e6f7420657869737420696e20746865207365742e00602082015250565b6000612d7c603f83612574565b9150612d8782612d20565b604082019050919050565b60006020820190508181036000830152612dab81612d6f565b9050919050565b7f4e487b7100000000000000000000000000000000000000000000000000000000600052603160045260246000fd5b6000606082019050612df6600083018661241e565b612e03602083018561241e565b612e106040830184612783565b949350505050565b600081519050612e2781612472565b92915050565b600060208284031215612e4357612e426122ab565b5b6000612e5184828501612e18565b91505092915050565b7f5361666545524332303a204552433230206f7065726174696f6e20646964206e60008201527f6f74207375636365656400000000000000000000000000000000000000000000602082015250565b6000612eb6602a83612574565b9150612ec182612e5a565b604082019050919050565b60006020820190508181036000830152612ee581612ea9565b9050919050565b7f416464726573733a20696e73756666696369656e742062616c616e636520666f60008201527f722063616c6c0000000000000000000000000000000000000000000000000000602082015250565b6000612f48602683612574565b9150612f5382612eec565b604082019050919050565b60006020820190508181036000830152612f7781612f3b565b9050919050565b7f416464726573733a2063616c6c20746f206e6f6e2d636f6e7472616374000000600082015250565b6000612fb4601d83612574565b9150612fbf82612f7e565b602082019050919050565b60006020820190508181036000830152612fe381612fa7565b9050919050565b600081519050919050565b60005b83811015613013578082015181840152602081019050612ff8565b83811115613022576000848401525b50505050565b600061303382612fea565b61303d81856126d1565b935061304d818560208601612ff5565b80840191505092915050565b60006130658284613028565b915081905092915050565b600081519050919050565b6000601f19601f8301169050919050565b600061309782613070565b6130a18185612574565b93506130b1818560208601612ff5565b6130ba8161307b565b840191505092915050565b600060208201905081810360008301526130df818461308c565b90509291505056fea264697066735822122055fae9a31c7007bac876c1a21066cd5747498df4ee3640a7da461e4111f4e0c864736f6c63430008090033a2646970667358221220d2f3098ea53b748f4f5b42da243e8a8f2c6da3a22e5437d2064c37464ee7463764736f6c63430008090033",
  "linkReferences": {},
  "deployedLinkReferences": {}
}