{
  "_format": "hh-sol-artifact-1",
  "contractName": "DDManagerFactory",
  "sourceName": "contracts/DDManagerFactory.sol",
  "abi": [
    {
      "anonymous": false,
      "inputs": [
        {
          "indexed": true,
          "internalType": "address",
          "name": "_contractOwner",
          "type": "address"
        },
        {
          "indexed": false,
          "internalType": "address",
          "name": "_contractAddress",
          "type": "address"
        }
      ],
      "name": "LogDDManagerCreation",
      "type": "event"
    },
    {
      "inputs": [],
      "name": "createMyDDManager",
      "outputs": [
        {
          "internalType": "address",
          "name": "",
          "type": "address"
        }
      ],
      "stateMutability": "nonpayable",
      "type": "function"
    },
    {
      "inputs": [],
      "name": "getMyDDManager",
      "outputs": [
        {
          "internalType": "address",
          "name": "",
          "type": "address"
        }
      ],
      "stateMutability": "view",
      "type": "function"
    },
    {
      "inputs": [],
      "name": "myDDManagerExist",
      "outputs": [
        {
          "internalType": "bool",
          "name": "",
          "type": "bool"
        }
      ],
      "stateMutability": "view",
      "type": "function"
    }
  ],
  "bytecode": "0x608060405234801561001057600080fd5b50614a8b806100206000396000f3fe608060405234801561001057600080fd5b50600436106100415760003560e01c8063945c7cb114610046578063bb15f36314610064578063e7e5169114610082575b600080fd5b61004e6100a0565b60405161005b9190610307565b60405180910390f35b61006c6101ab565b604051610079919061033d565b60405180910390f35b61008a610253565b6040516100979190610307565b60405180910390f35b600080336040516100b0906102b9565b6100ba9190610307565b604051809103906000f0801580156100d6573d6000803e3d6000fd5b509050806000803373ffffffffffffffffffffffffffffffffffffffff1673ffffffffffffffffffffffffffffffffffffffff16815260200190815260200160002060006101000a81548173ffffffffffffffffffffffffffffffffffffffff021916908373ffffffffffffffffffffffffffffffffffffffff1602179055503373ffffffffffffffffffffffffffffffffffffffff167fa5d99b7eb87e22e614b8a90c815a7d39ce80f3359e95f1d24f92ca06036737078260405161019c9190610307565b60405180910390a28091505090565b6000806000803373ffffffffffffffffffffffffffffffffffffffff1673ffffffffffffffffffffffffffffffffffffffff16815260200190815260200160002060009054906101000a900473ffffffffffffffffffffffffffffffffffffffff169050600073ffffffffffffffffffffffffffffffffffffffff168173ffffffffffffffffffffffffffffffffffffffff161461024a57600161024d565b60005b91505090565b60008060003373ffffffffffffffffffffffffffffffffffffffff1673ffffffffffffffffffffffffffffffffffffffff16815260200190815260200160002060009054906101000a900473ffffffffffffffffffffffffffffffffffffffff16905090565b6146fd8061035983390190565b600073ffffffffffffffffffffffffffffffffffffffff82169050919050565b60006102f1826102c6565b9050919050565b610301816102e6565b82525050565b600060208201905061031c60008301846102f8565b92915050565b60008115159050919050565b61033781610322565b82525050565b6000602082019050610352600083018461032e565b9291505056fe60806040523480156200001157600080fd5b50604051620046fd380380620046fd8339818101604052810190620000379190620001aa565b620000576200004b6200007460201b60201c565b6200007c60201b60201c565b6200006d816200007c60201b620004041760201c565b50620001dc565b600033905090565b60008060009054906101000a900473ffffffffffffffffffffffffffffffffffffffff169050816000806101000a81548173ffffffffffffffffffffffffffffffffffffffff021916908373ffffffffffffffffffffffffffffffffffffffff1602179055508173ffffffffffffffffffffffffffffffffffffffff168173ffffffffffffffffffffffffffffffffffffffff167f8be0079c531659141344cd1fd0a4f28419497f9722a3daafe3b4186f6b6457e060405160405180910390a35050565b600080fd5b600073ffffffffffffffffffffffffffffffffffffffff82169050919050565b6000620001728262000145565b9050919050565b620001848162000165565b81146200019057600080fd5b50565b600081519050620001a48162000179565b92915050565b600060208284031215620001c357620001c262000140565b5b6000620001d38482850162000193565b91505092915050565b61451180620001ec6000396000f3fe60806040523480156200001157600080fd5b5060043610620000945760003560e01c80638da5cb5b11620000635780638da5cb5b146200010b578063b533945d146200012d578063e5a97d31146200014d578063f2fde38b14620001835762000094565b80634ab0a9f81462000099578063715018a614620000bb5780637186372714620000c757806373085d2614620000e9575b600080fd5b620000a3620001a3565b604051620000b2919062000b2c565b60405180910390f35b620000c562000262565b005b620000d16200027a565b604051620000e0919062000c17565b60405180910390f35b620000f362000297565b60405162000102919062000c56565b60405180910390f35b62000115620002b4565b60405162000124919062000b2c565b60405180910390f35b6200014b600480360381019062000145919062000ca9565b620002dd565b005b6200016b600480360381019062000165919062000d0c565b62000350565b6040516200017a919062000b2c565b60405180910390f35b620001a160048036038101906200019b919062000ca9565b62000379565b005b6000620001af620004c8565b6000620001bb620002b4565b604051620001c99062000ad9565b620001d5919062000b2c565b604051809103906000f080158015620001f2573d6000803e3d6000fd5b5090506200020b8160016200054d90919063ffffffff16565b3373ffffffffffffffffffffffffffffffffffffffff167f089aeb21943a056b29ec2d8b6f6a6c4462bd8060828b1f28060335b4729efb218260405162000253919062000b2c565b60405180910390a28091505090565b6200026c620004c8565b62000278600062000404565b565b606062000286620004c8565b620002926001620006d3565b905090565b6000620002a3620004c8565b620002af600162000767565b905090565b60008060009054906101000a900473ffffffffffffffffffffffffffffffffffffffff16905090565b620002e7620004c8565b620002fd8160016200077890919063ffffffff16565b3373ffffffffffffffffffffffffffffffffffffffff167ff51a2555b2a7d99aeeed53d6890f18b8d4d737f3efaf559fea6d7abd39ea01008260405162000345919062000b2c565b60405180910390a250565b60006200035c620004c8565b62000372826001620009ab90919063ffffffff16565b9050919050565b62000383620004c8565b600073ffffffffffffffffffffffffffffffffffffffff168173ffffffffffffffffffffffffffffffffffffffff161415620003f6576040517f08c379a0000000000000000000000000000000000000000000000000000000008152600401620003ed9062000dc5565b60405180910390fd5b620004018162000404565b50565b60008060009054906101000a900473ffffffffffffffffffffffffffffffffffffffff169050816000806101000a81548173ffffffffffffffffffffffffffffffffffffffff021916908373ffffffffffffffffffffffffffffffffffffffff1602179055508173ffffffffffffffffffffffffffffffffffffffff168173ffffffffffffffffffffffffffffffffffffffff167f8be0079c531659141344cd1fd0a4f28419497f9722a3daafe3b4186f6b6457e060405160405180910390a35050565b620004d2620009f9565b73ffffffffffffffffffffffffffffffffffffffff16620004f2620002b4565b73ffffffffffffffffffffffffffffffffffffffff16146200054b576040517f08c379a0000000000000000000000000000000000000000000000000000000008152600401620005429062000e37565b60405180910390fd5b565b600073ffffffffffffffffffffffffffffffffffffffff168173ffffffffffffffffffffffffffffffffffffffff161415620005c0576040517f08c379a0000000000000000000000000000000000000000000000000000000008152600401620005b79062000ecf565b60405180910390fd5b620005cc828262000a01565b156200060f576040517f08c379a0000000000000000000000000000000000000000000000000000000008152600401620006069062000f8d565b60405180910390fd5b81600101819080600181540180825580915050600190039060005260206000200160009091909190916101000a81548173ffffffffffffffffffffffffffffffffffffffff021916908373ffffffffffffffffffffffffffffffffffffffff160217905550600182600101805490506200068a919062000fde565b8260000160008373ffffffffffffffffffffffffffffffffffffffff1673ffffffffffffffffffffffffffffffffffffffff168152602001908152602001600020819055505050565b6060816001018054806020026020016040519081016040528092919081815260200182805480156200075b57602002820191906000526020600020905b8160009054906101000a900473ffffffffffffffffffffffffffffffffffffffff1673ffffffffffffffffffffffffffffffffffffffff168152602001906001019080831162000710575b50505050509050919050565b600081600101805490509050919050565b62000784828262000a01565b620007c6576040517f08c379a0000000000000000000000000000000000000000000000000000000008152600401620007bd906200108f565b60405180910390fd5b6000826001016001620007d98562000767565b620007e5919062000fde565b81548110620007f957620007f8620010b1565b5b9060005260206000200160009054906101000a900473ffffffffffffffffffffffffffffffffffffffff16905060008360000160008473ffffffffffffffffffffffffffffffffffffffff1673ffffffffffffffffffffffffffffffffffffffff168152602001908152602001600020549050808460000160008473ffffffffffffffffffffffffffffffffffffffff1673ffffffffffffffffffffffffffffffffffffffff1681526020019081526020016000208190555081846001018281548110620008cc57620008cb620010b1565b5b9060005260206000200160006101000a81548173ffffffffffffffffffffffffffffffffffffffff021916908373ffffffffffffffffffffffffffffffffffffffff1602179055508360000160008473ffffffffffffffffffffffffffffffffffffffff1673ffffffffffffffffffffffffffffffffffffffff168152602001908152602001600020600090558360010180548062000970576200096f620010e0565b5b6001900381819060005260206000200160006101000a81549073ffffffffffffffffffffffffffffffffffffffff0219169055905550505050565b6000826001018281548110620009c657620009c5620010b1565b5b9060005260206000200160009054906101000a900473ffffffffffffffffffffffffffffffffffffffff16905092915050565b600033905090565b6000808360010180549050141562000a1d576000905062000ad3565b8173ffffffffffffffffffffffffffffffffffffffff16836001018460000160008573ffffffffffffffffffffffffffffffffffffffff1673ffffffffffffffffffffffffffffffffffffffff168152602001908152602001600020548154811062000a8e5762000a8d620010b1565b5b9060005260206000200160009054906101000a900473ffffffffffffffffffffffffffffffffffffffff1673ffffffffffffffffffffffffffffffffffffffff161490505b92915050565b6133cc806200111083390190565b600073ffffffffffffffffffffffffffffffffffffffff82169050919050565b600062000b148262000ae7565b9050919050565b62000b268162000b07565b82525050565b600060208201905062000b43600083018462000b1b565b92915050565b600081519050919050565b600082825260208201905092915050565b6000819050602082019050919050565b62000b808162000b07565b82525050565b600062000b94838362000b75565b60208301905092915050565b6000602082019050919050565b600062000bba8262000b49565b62000bc6818562000b54565b935062000bd38362000b65565b8060005b8381101562000c0a57815162000bee888262000b86565b975062000bfb8362000ba0565b92505060018101905062000bd7565b5085935050505092915050565b6000602082019050818103600083015262000c33818462000bad565b905092915050565b6000819050919050565b62000c508162000c3b565b82525050565b600060208201905062000c6d600083018462000c45565b92915050565b600080fd5b62000c838162000b07565b811462000c8f57600080fd5b50565b60008135905062000ca38162000c78565b92915050565b60006020828403121562000cc25762000cc162000c73565b5b600062000cd28482850162000c92565b91505092915050565b62000ce68162000c3b565b811462000cf257600080fd5b50565b60008135905062000d068162000cdb565b92915050565b60006020828403121562000d255762000d2462000c73565b5b600062000d358482850162000cf5565b91505092915050565b600082825260208201905092915050565b7f4f776e61626c653a206e6577206f776e657220697320746865207a65726f206160008201527f6464726573730000000000000000000000000000000000000000000000000000602082015250565b600062000dad60268362000d3e565b915062000dba8262000d4f565b604082019050919050565b6000602082019050818103600083015262000de08162000d9e565b9050919050565b7f4f776e61626c653a2063616c6c6572206973206e6f7420746865206f776e6572600082015250565b600062000e1f60208362000d3e565b915062000e2c8262000de7565b602082019050919050565b6000602082019050818103600083015262000e528162000e10565b9050919050565b7f556e6f7264657265644b65795365742831303029202d204b65792063616e6e6f60008201527f7420626520307830000000000000000000000000000000000000000000000000602082015250565b600062000eb760288362000d3e565b915062000ec48262000e59565b604082019050919050565b6000602082019050818103600083015262000eea8162000ea8565b9050919050565b7f556e6f726465726564416464726573735365742831303129202d20416464726560008201527f737320286b65792920616c72656164792065786973747320696e20746865207360208201527f65742e0000000000000000000000000000000000000000000000000000000000604082015250565b600062000f7560438362000d3e565b915062000f828262000ef1565b606082019050919050565b6000602082019050818103600083015262000fa88162000f66565b9050919050565b7f4e487b7100000000000000000000000000000000000000000000000000000000600052601160045260246000fd5b600062000feb8262000c3b565b915062000ff88362000c3b565b9250828210156200100e576200100d62000faf565b5b828203905092915050565b7f556e6f7264657265644b65795365742831303229202d2041646472657373202860008201527f6b65792920646f6573206e6f7420657869737420696e20746865207365742e00602082015250565b600062001077603f8362000d3e565b9150620010848262001019565b604082019050919050565b60006020820190508181036000830152620010aa8162001068565b9050919050565b7f4e487b7100000000000000000000000000000000000000000000000000000000600052603260045260246000fd5b7f4e487b7100000000000000000000000000000000000000000000000000000000600052603160045260246000fdfe60806040523480156200001157600080fd5b50604051620033cc380380620033cc8339818101604052810190620000379190620001e7565b620000576200004b620000b160201b60201c565b620000b960201b60201c565b6200006d81620000b960201b620017eb1760201c565b6000600660006101000a81548163ffffffff021916908363ffffffff1602179055506000600660046101000a81548160ff0219169083151502179055505062000219565b600033905090565b60008060009054906101000a900473ffffffffffffffffffffffffffffffffffffffff169050816000806101000a81548173ffffffffffffffffffffffffffffffffffffffff021916908373ffffffffffffffffffffffffffffffffffffffff1602179055508173ffffffffffffffffffffffffffffffffffffffff168173ffffffffffffffffffffffffffffffffffffffff167f8be0079c531659141344cd1fd0a4f28419497f9722a3daafe3b4186f6b6457e060405160405180910390a35050565b600080fd5b600073ffffffffffffffffffffffffffffffffffffffff82169050919050565b6000620001af8262000182565b9050919050565b620001c181620001a2565b8114620001cd57600080fd5b50565b600081519050620001e181620001b6565b92915050565b6000602082840312156200020057620001ff6200017d565b5b60006200021084828501620001d0565b91505092915050565b6131a380620002296000396000f3fe60806040526004361061014b5760003560e01c8063a7619e89116100b6578063e69d849d1161006f578063e69d849d146103f4578063ed88c68e1461041d578063f2fde38b14610427578063f75d19b914610450578063fc9ffe0214610479578063fec08d7e146104a45761014b565b8063a7619e89146102fa578063b997083814610325578063bfab3db91461034e578063c58156e014610365578063cf386a591461038e578063dd80fbd4146103cb5761014b565b80636bdebcc9116101085780636bdebcc914610238578063715018a61461024f57806372759aa714610266578063869e1a131461028f5780638da5cb5b146102a6578063a620b119146102d15761014b565b8063344974d9146101505780633b3790df1461017b57806348b77f75146101a4578063510791e6146101cd5780635137a7da146101e457806357fbb9df1461020f575b600080fd5b34801561015c57600080fd5b506101656104cd565b604051610172919061230f565b60405180910390f35b34801561018757600080fd5b506101a2600480360381019061019d919061239e565b6104de565b005b3480156101b057600080fd5b506101cb60048036038101906101c69190612414565b610653565b005b3480156101d957600080fd5b506101e261081d565b005b3480156101f057600080fd5b506101f9610914565b604051610206919061245c565b60405180910390f35b34801561021b57600080fd5b5061023660048036038101906102319190612477565b610927565b005b34801561024457600080fd5b5061024d610ab7565b005b34801561025b57600080fd5b50610264610b13565b005b34801561027257600080fd5b5061028d60048036038101906102889190612477565b610b27565b005b34801561029b57600080fd5b506102a4610b89565b005b3480156102b257600080fd5b506102bb610bf6565b6040516102c891906124b3565b60405180910390f35b3480156102dd57600080fd5b506102f860048036038101906102f3919061239e565b610c1f565b005b34801561030657600080fd5b5061030f610e25565b60405161031c91906124dd565b60405180910390f35b34801561033157600080fd5b5061034c60048036038101906103479190612524565b610e47565b005b34801561035a57600080fd5b50610363610e9b565b005b34801561037157600080fd5b5061038c60048036038101906103879190612477565b610fad565b005b34801561039a57600080fd5b506103b560048036038101906103b09190612477565b61114f565b6040516103c291906124dd565b60405180910390f35b3480156103d757600080fd5b506103f260048036038101906103ed9190612477565b611203565b005b34801561040057600080fd5b5061041b60048036038101906104169190612551565b611265565b005b610425611364565b005b34801561043357600080fd5b5061044e60048036038101906104499190612477565b6113c3565b005b34801561045c57600080fd5b506104776004803603810190610472919061239e565b611447565b005b34801561048557600080fd5b5061048e611619565b60405161049b919061230f565b60405180910390f35b3480156104b057600080fd5b506104cb60048036038101906104c69190612551565b611632565b005b60606104d960036118af565b905090565b6104e6611941565b633b9aca0081600660009054906101000a900463ffffffff1661050991906125c0565b63ffffffff161115610550576040517f08c379a00000000000000000000000000000000000000000000000000000000081526004016105479061267d565b60405180910390fd5b6105648260016119bf90919063ffffffff16565b80600560008473ffffffffffffffffffffffffffffffffffffffff1673ffffffffffffffffffffffffffffffffffffffff16815260200190815260200160002060006101000a81548163ffffffff021916908363ffffffff16021790555080600660008282829054906101000a900463ffffffff166105e391906125c0565b92506101000a81548163ffffffff021916908363ffffffff1602179055508173ffffffffffffffffffffffffffffffffffffffff167fcf3b976d0436b612337e2db4f48172abc8af16d3c5cd009c898bd74339300d368260405161064791906124dd565b60405180910390a25050565b61065b611941565b60008080600090505b61066e6001611b3b565b8163ffffffff161015610817576106958163ffffffff166001611b4c90919063ffffffff16565b9150600560008373ffffffffffffffffffffffffffffffffffffffff1673ffffffffffffffffffffffffffffffffffffffff16815260200190815260200160002060009054906101000a900463ffffffff1663ffffffff16633b9aca00856106fd91906126cc565b61070791906126fd565b925060008273ffffffffffffffffffffffffffffffffffffffff168460405161072f90612788565b60006040518083038185875af1925050503d806000811461076c576040519150601f19603f3d011682016040523d82523d6000602084013e610771565b606091505b50509050806107b5576040517f08c379a00000000000000000000000000000000000000000000000000000000081526004016107ac906127e9565b60405180910390fd5b8273ffffffffffffffffffffffffffffffffffffffff167f901d6574876f702144893b5615ac1662cf8fc3af9a789d55318523582ea30c2f856040516107fb9190612818565b60405180910390a250808061080f90612833565b915050610664565b50505050565b610825611941565b61082e47610653565b60008060005b61083e6003611b3b565b8163ffffffff16101561090f576108658163ffffffff166003611b4c90919063ffffffff16565b92508291506108fc838373ffffffffffffffffffffffffffffffffffffffff166370a08231306040518263ffffffff1660e01b81526004016108a791906124b3565b60206040518083038186803b1580156108bf57600080fd5b505afa1580156108d3573d6000803e3d6000fd5b505050506040513d601f19601f820116820180604052508101906108f79190612875565b611632565b808061090790612833565b915050610834565b505050565b600660049054906101000a900460ff1681565b61092f611941565b610943816003611b9790919063ffffffff16565b610982576040517f08c379a0000000000000000000000000000000000000000000000000000000008152600401610979906128ee565b60405180910390fd5b600081905060008173ffffffffffffffffffffffffffffffffffffffff166370a08231306040518263ffffffff1660e01b81526004016109c291906124b3565b60206040518083038186803b1580156109da57600080fd5b505afa1580156109ee573d6000803e3d6000fd5b505050506040513d601f19601f82011682018060405250810190610a129190612875565b9050610a46610a1f610bf6565b828473ffffffffffffffffffffffffffffffffffffffff16611c6a9092919063ffffffff16565b610a4e610bf6565b73ffffffffffffffffffffffffffffffffffffffff168373ffffffffffffffffffffffffffffffffffffffff167f9060f013e2325841ebb42f269dde3d9c3cfdd43631c1234791bbab7ae168e59e83604051610aaa9190612818565b60405180910390a3505050565b610abf611941565b610ac7610b89565b7feb00b8082c686f550382b8ee41b26cf3316fb776751d374085547b4421f44e4a60405160405180910390a1610afb610bf6565b73ffffffffffffffffffffffffffffffffffffffff16ff5b610b1b611941565b610b2560006117eb565b565b610b2f611941565b610b438160036119bf90919063ffffffff16565b8073ffffffffffffffffffffffffffffffffffffffff167f218e9b7dcbb9c8a016967fac8b197204a8c14cee2648dbbb6f9a527ec89a9efa60405160405180910390a250565b610b91611941565b610b99610e9b565b60008060005b610ba96003611b3b565b8163ffffffff161015610bf157610bd08163ffffffff166003611b4c90919063ffffffff16565b9250829150610bde83610927565b8080610be990612833565b915050610b9f565b505050565b60008060009054906101000a900473ffffffffffffffffffffffffffffffffffffffff16905090565b610c27611941565b610c3b826001611b9790919063ffffffff16565b610c7a576040517f08c379a0000000000000000000000000000000000000000000000000000000008152600401610c7190612980565b60405180910390fd5b600560008373ffffffffffffffffffffffffffffffffffffffff1673ffffffffffffffffffffffffffffffffffffffff16815260200190815260200160002060009054906101000a900463ffffffff1663ffffffff168163ffffffff161115610d18576040517f08c379a0000000000000000000000000000000000000000000000000000000008152600401610d0f90612a12565b60405180910390fd5b80600560008473ffffffffffffffffffffffffffffffffffffffff1673ffffffffffffffffffffffffffffffffffffffff16815260200190815260200160002060008282829054906101000a900463ffffffff16610d769190612a32565b92506101000a81548163ffffffff021916908363ffffffff16021790555080600660008282829054906101000a900463ffffffff16610db59190612a32565b92506101000a81548163ffffffff021916908363ffffffff1602179055508173ffffffffffffffffffffffffffffffffffffffff167fc71024bd021900ec858a28778c77898b9874ba5e2dd0b4406b76ca94b354787f82604051610e1991906124dd565b60405180910390a25050565b6000610e2f611941565b600660009054906101000a900463ffffffff16905090565b80600660046101000a81548160ff0219169083151502179055507ff1f62f56072e506df20ce469ef2944703cab8eec0eae0beaede789529666b1f481604051610e90919061245c565b60405180910390a150565b610ea3611941565b600047905060003373ffffffffffffffffffffffffffffffffffffffff1682604051610ece90612788565b60006040518083038185875af1925050503d8060008114610f0b576040519150601f19603f3d011682016040523d82523d6000602084013e610f10565b606091505b5050905080610f54576040517f08c379a0000000000000000000000000000000000000000000000000000000008152600401610f4b90612ab2565b60405180910390fd5b610f5c610bf6565b73ffffffffffffffffffffffffffffffffffffffff167fbf4c5aa66ed18442bd8e8e3876d36dcd98043eedb61fee837986cd404d737c4d83604051610fa19190612818565b60405180910390a25050565b610fb5611941565b610fc9816001611b9790919063ffffffff16565b611008576040517f08c379a0000000000000000000000000000000000000000000000000000000008152600401610fff90612980565b60405180910390fd5b600560008273ffffffffffffffffffffffffffffffffffffffff1673ffffffffffffffffffffffffffffffffffffffff16815260200190815260200160002060009054906101000a900463ffffffff16600660008282829054906101000a900463ffffffff166110789190612a32565b92506101000a81548163ffffffff021916908363ffffffff1602179055506000600560008373ffffffffffffffffffffffffffffffffffffffff1673ffffffffffffffffffffffffffffffffffffffff16815260200190815260200160002060006101000a81548163ffffffff021916908363ffffffff160217905550611109816001611cf090919063ffffffff16565b8073ffffffffffffffffffffffffffffffffffffffff167f0ef40da7dc54329cca1f256fe0f066828e31c12195219e718619fd40f7eaad9060405160405180910390a250565b6000611159611941565b61116d826001611b9790919063ffffffff16565b6111ac576040517f08c379a00000000000000000000000000000000000000000000000000000000081526004016111a390612980565b60405180910390fd5b600560008373ffffffffffffffffffffffffffffffffffffffff1673ffffffffffffffffffffffffffffffffffffffff16815260200190815260200160002060009054906101000a900463ffffffff169050919050565b61120b611941565b61121f816003611cf090919063ffffffff16565b8073ffffffffffffffffffffffffffffffffffffffff167f7939c7f1f8c34fe2e4925ad6b09af9058b67df435a3ee898310e6a63ae4235b760405160405180910390a250565b611279826003611b9790919063ffffffff16565b6112b8576040517f08c379a00000000000000000000000000000000000000000000000000000000081526004016112af906128ee565b60405180910390fd5b60008290506112ea3330848473ffffffffffffffffffffffffffffffffffffffff16611f11909392919063ffffffff16565b8273ffffffffffffffffffffffffffffffffffffffff167f7d7a8a12946d8074e2e77b69daa2cd024bd2ffaea651a9194b0b347b17ac200f836040516113309190612818565b60405180910390a260001515600660049054906101000a900460ff161515141561135f5761135e8383611632565b5b505050565b7f238397202cd1c526c4a92188dca9576aba56c3d627ee44f628b6dfd3ece54317346040516113939190612818565b60405180910390a160001515600660049054906101000a900460ff16151514156113c1576113c034610653565b5b565b6113cb611941565b600073ffffffffffffffffffffffffffffffffffffffff168173ffffffffffffffffffffffffffffffffffffffff16141561143b576040517f08c379a000000000000000000000000000000000000000000000000000000000815260040161143290612b44565b60405180910390fd5b611444816117eb565b50565b61144f611941565b611463826001611b9790919063ffffffff16565b6114a2576040517f08c379a000000000000000000000000000000000000000000000000000000000815260040161149990612980565b60405180910390fd5b633b9aca0081600660009054906101000a900463ffffffff166114c591906125c0565b63ffffffff16111561150c576040517f08c379a00000000000000000000000000000000000000000000000000000000081526004016115039061267d565b60405180910390fd5b80600560008473ffffffffffffffffffffffffffffffffffffffff1673ffffffffffffffffffffffffffffffffffffffff16815260200190815260200160002060008282829054906101000a900463ffffffff1661156a91906125c0565b92506101000a81548163ffffffff021916908363ffffffff16021790555080600660008282829054906101000a900463ffffffff166115a991906125c0565b92506101000a81548163ffffffff021916908363ffffffff1602179055508173ffffffffffffffffffffffffffffffffffffffff167f9eb78aabb1d6fda44c96a290fead067062b6341f0c0645620cfbb13acc5a90ab8260405161160d91906124dd565b60405180910390a25050565b6060611623611941565b61162d60016118af565b905090565b61163a611941565b61164e826003611b9790919063ffffffff16565b61168d576040517f08c379a0000000000000000000000000000000000000000000000000000000008152600401611684906128ee565b60405180910390fd5b600082905060008080600090505b6116a56001611b3b565b8163ffffffff1610156117e3576116cc8163ffffffff166001611b4c90919063ffffffff16565b9150633b9aca00600560008473ffffffffffffffffffffffffffffffffffffffff1673ffffffffffffffffffffffffffffffffffffffff16815260200190815260200160002060009054906101000a900463ffffffff1663ffffffff168661173491906126fd565b61173e91906126cc565b925061176b82848673ffffffffffffffffffffffffffffffffffffffff16611c6a9092919063ffffffff16565b8173ffffffffffffffffffffffffffffffffffffffff168673ffffffffffffffffffffffffffffffffffffffff167fe153fce8c26fd3e4726a55a854fbfe4167f28f00a18bdfc9cc1e0107367989f6856040516117c89190612818565b60405180910390a380806117db90612833565b91505061169b565b505050505050565b60008060009054906101000a900473ffffffffffffffffffffffffffffffffffffffff169050816000806101000a81548173ffffffffffffffffffffffffffffffffffffffff021916908373ffffffffffffffffffffffffffffffffffffffff1602179055508173ffffffffffffffffffffffffffffffffffffffff168173ffffffffffffffffffffffffffffffffffffffff167f8be0079c531659141344cd1fd0a4f28419497f9722a3daafe3b4186f6b6457e060405160405180910390a35050565b60608160010180548060200260200160405190810160405280929190818152602001828054801561193557602002820191906000526020600020905b8160009054906101000a900473ffffffffffffffffffffffffffffffffffffffff1673ffffffffffffffffffffffffffffffffffffffff16815260200190600101908083116118eb575b50505050509050919050565b611949611f9a565b73ffffffffffffffffffffffffffffffffffffffff16611967610bf6565b73ffffffffffffffffffffffffffffffffffffffff16146119bd576040517f08c379a00000000000000000000000000000000000000000000000000000000081526004016119b490612bb0565b60405180910390fd5b565b600073ffffffffffffffffffffffffffffffffffffffff168173ffffffffffffffffffffffffffffffffffffffff161415611a2f576040517f08c379a0000000000000000000000000000000000000000000000000000000008152600401611a2690612c42565b60405180910390fd5b611a398282611b97565b15611a79576040517f08c379a0000000000000000000000000000000000000000000000000000000008152600401611a7090612cfa565b60405180910390fd5b81600101819080600181540180825580915050600190039060005260206000200160009091909190916101000a81548173ffffffffffffffffffffffffffffffffffffffff021916908373ffffffffffffffffffffffffffffffffffffffff16021790555060018260010180549050611af29190612d1a565b8260000160008373ffffffffffffffffffffffffffffffffffffffff1673ffffffffffffffffffffffffffffffffffffffff168152602001908152602001600020819055505050565b600081600101805490509050919050565b6000826001018281548110611b6457611b63612d4e565b5b9060005260206000200160009054906101000a900473ffffffffffffffffffffffffffffffffffffffff16905092915050565b60008083600101805490501415611bb15760009050611c64565b8173ffffffffffffffffffffffffffffffffffffffff16836001018460000160008573ffffffffffffffffffffffffffffffffffffffff1673ffffffffffffffffffffffffffffffffffffffff1681526020019081526020016000205481548110611c1f57611c1e612d4e565b5b9060005260206000200160009054906101000a900473ffffffffffffffffffffffffffffffffffffffff1673ffffffffffffffffffffffffffffffffffffffff161490505b92915050565b611ceb8363a9059cbb60e01b8484604051602401611c89929190612d7d565b604051602081830303815290604052907bffffffffffffffffffffffffffffffffffffffffffffffffffffffff19166020820180517bffffffffffffffffffffffffffffffffffffffffffffffffffffffff8381831617835250505050611fa2565b505050565b611cfa8282611b97565b611d39576040517f08c379a0000000000000000000000000000000000000000000000000000000008152600401611d3090612e18565b60405180910390fd5b6000826001016001611d4a85611b3b565b611d549190612d1a565b81548110611d6557611d64612d4e565b5b9060005260206000200160009054906101000a900473ffffffffffffffffffffffffffffffffffffffff16905060008360000160008473ffffffffffffffffffffffffffffffffffffffff1673ffffffffffffffffffffffffffffffffffffffff168152602001908152602001600020549050808460000160008473ffffffffffffffffffffffffffffffffffffffff1673ffffffffffffffffffffffffffffffffffffffff1681526020019081526020016000208190555081846001018281548110611e3557611e34612d4e565b5b9060005260206000200160006101000a81548173ffffffffffffffffffffffffffffffffffffffff021916908373ffffffffffffffffffffffffffffffffffffffff1602179055508360000160008473ffffffffffffffffffffffffffffffffffffffff1673ffffffffffffffffffffffffffffffffffffffff1681526020019081526020016000206000905583600101805480611ed657611ed5612e38565b5b6001900381819060005260206000200160006101000a81549073ffffffffffffffffffffffffffffffffffffffff0219169055905550505050565b611f94846323b872dd60e01b858585604051602401611f3293929190612e67565b604051602081830303815290604052907bffffffffffffffffffffffffffffffffffffffffffffffffffffffff19166020820180517bffffffffffffffffffffffffffffffffffffffffffffffffffffffff8381831617835250505050611fa2565b50505050565b600033905090565b6000612004826040518060400160405280602081526020017f5361666545524332303a206c6f772d6c6576656c2063616c6c206661696c65648152508573ffffffffffffffffffffffffffffffffffffffff166120699092919063ffffffff16565b905060008151111561206457808060200190518101906120249190612eb3565b612063576040517f08c379a000000000000000000000000000000000000000000000000000000000815260040161205a90612f52565b60405180910390fd5b5b505050565b60606120788484600085612081565b90509392505050565b6060824710156120c6576040517f08c379a00000000000000000000000000000000000000000000000000000000081526004016120bd90612fe4565b60405180910390fd5b6120cf85612195565b61210e576040517f08c379a000000000000000000000000000000000000000000000000000000000815260040161210590613050565b60405180910390fd5b6000808673ffffffffffffffffffffffffffffffffffffffff16858760405161213791906130df565b60006040518083038185875af1925050503d8060008114612174576040519150601f19603f3d011682016040523d82523d6000602084013e612179565b606091505b50915091506121898282866121b8565b92505050949350505050565b6000808273ffffffffffffffffffffffffffffffffffffffff163b119050919050565b606083156121c857829050612218565b6000835111156121db5782518084602001fd5b816040517f08c379a000000000000000000000000000000000000000000000000000000000815260040161220f919061314b565b60405180910390fd5b9392505050565b600081519050919050565b600082825260208201905092915050565b6000819050602082019050919050565b600073ffffffffffffffffffffffffffffffffffffffff82169050919050565b60006122768261224b565b9050919050565b6122868161226b565b82525050565b6000612298838361227d565b60208301905092915050565b6000602082019050919050565b60006122bc8261221f565b6122c6818561222a565b93506122d18361223b565b8060005b838110156123025781516122e9888261228c565b97506122f4836122a4565b9250506001810190506122d5565b5085935050505092915050565b6000602082019050818103600083015261232981846122b1565b905092915050565b600080fd5b61233f8161226b565b811461234a57600080fd5b50565b60008135905061235c81612336565b92915050565b600063ffffffff82169050919050565b61237b81612362565b811461238657600080fd5b50565b60008135905061239881612372565b92915050565b600080604083850312156123b5576123b4612331565b5b60006123c38582860161234d565b92505060206123d485828601612389565b9150509250929050565b6000819050919050565b6123f1816123de565b81146123fc57600080fd5b50565b60008135905061240e816123e8565b92915050565b60006020828403121561242a57612429612331565b5b6000612438848285016123ff565b91505092915050565b60008115159050919050565b61245681612441565b82525050565b6000602082019050612471600083018461244d565b92915050565b60006020828403121561248d5761248c612331565b5b600061249b8482850161234d565b91505092915050565b6124ad8161226b565b82525050565b60006020820190506124c860008301846124a4565b92915050565b6124d781612362565b82525050565b60006020820190506124f260008301846124ce565b92915050565b61250181612441565b811461250c57600080fd5b50565b60008135905061251e816124f8565b92915050565b60006020828403121561253a57612539612331565b5b60006125488482850161250f565b91505092915050565b6000806040838503121561256857612567612331565b5b60006125768582860161234d565b9250506020612587858286016123ff565b9150509250929050565b7f4e487b7100000000000000000000000000000000000000000000000000000000600052601160045260246000fd5b60006125cb82612362565b91506125d683612362565b92508263ffffffff038211156125ef576125ee612591565b5b828201905092915050565b600082825260208201905092915050565b7f746f74616c2070657263656e7420636f756e742063616e6e6f7420706173732060008201527f313030252e000000000000000000000000000000000000000000000000000000602082015250565b60006126676025836125fa565b91506126728261260b565b604082019050919050565b600060208201905081810360008301526126968161265a565b9050919050565b7f4e487b7100000000000000000000000000000000000000000000000000000000600052601260045260246000fd5b60006126d7826123de565b91506126e2836123de565b9250826126f2576126f161269d565b5b828204905092915050565b6000612708826123de565b9150612713836123de565b9250817fffffffffffffffffffffffffffffffffffffffffffffffffffffffffffffffff048311821515161561274c5761274b612591565b5b828202905092915050565b600081905092915050565b50565b6000612772600083612757565b915061277d82612762565b600082019050919050565b600061279382612765565b9150819050919050565b7f4661696c656420746f2073656e64204574686572000000000000000000000000600082015250565b60006127d36014836125fa565b91506127de8261279d565b602082019050919050565b60006020820190508181036000830152612802816127c6565b9050919050565b612812816123de565b82525050565b600060208201905061282d6000830184612809565b92915050565b600061283e82612362565b915063ffffffff82141561285557612854612591565b5b600182019050919050565b60008151905061286f816123e8565b92915050565b60006020828403121561288b5761288a612331565b5b600061289984828501612860565b91505092915050565b7f546f6b656e206e6f74206163636570746564206279206f776e65722e00000000600082015250565b60006128d8601c836125fa565b91506128e3826128a2565b602082019050919050565b60006020820190508181036000830152612907816128cb565b9050919050565b7f6164647265737320686173206e6f74206265656e20616464656420746f20616c60008201527f6c6f636174696f6e2e0000000000000000000000000000000000000000000000602082015250565b600061296a6029836125fa565b91506129758261290e565b604082019050919050565b600060208201905081810360008301526129998161295d565b9050919050565b7f63616e6e6f74207375627472616374206d6f7265207468616e20616c7265616460008201527f7920616c6c6f63617465642e0000000000000000000000000000000000000000602082015250565b60006129fc602c836125fa565b9150612a07826129a0565b604082019050919050565b60006020820190508181036000830152612a2b816129ef565b9050919050565b6000612a3d82612362565b9150612a4883612362565b925082821015612a5b57612a5a612591565b5b828203905092915050565b7f4661696c656420746f2073656e642045746865722e0000000000000000000000600082015250565b6000612a9c6015836125fa565b9150612aa782612a66565b602082019050919050565b60006020820190508181036000830152612acb81612a8f565b9050919050565b7f4f776e61626c653a206e6577206f776e657220697320746865207a65726f206160008201527f6464726573730000000000000000000000000000000000000000000000000000602082015250565b6000612b2e6026836125fa565b9150612b3982612ad2565b604082019050919050565b60006020820190508181036000830152612b5d81612b21565b9050919050565b7f4f776e61626c653a2063616c6c6572206973206e6f7420746865206f776e6572600082015250565b6000612b9a6020836125fa565b9150612ba582612b64565b602082019050919050565b60006020820190508181036000830152612bc981612b8d565b9050919050565b7f556e6f7264657265644b65795365742831303029202d204b65792063616e6e6f60008201527f7420626520307830000000000000000000000000000000000000000000000000602082015250565b6000612c2c6028836125fa565b9150612c3782612bd0565b604082019050919050565b60006020820190508181036000830152612c5b81612c1f565b9050919050565b7f556e6f726465726564416464726573735365742831303129202d20416464726560008201527f737320286b65792920616c72656164792065786973747320696e20746865207360208201527f65742e0000000000000000000000000000000000000000000000000000000000604082015250565b6000612ce46043836125fa565b9150612cef82612c62565b606082019050919050565b60006020820190508181036000830152612d1381612cd7565b9050919050565b6000612d25826123de565b9150612d30836123de565b925082821015612d4357612d42612591565b5b828203905092915050565b7f4e487b7100000000000000000000000000000000000000000000000000000000600052603260045260246000fd5b6000604082019050612d9260008301856124a4565b612d9f6020830184612809565b9392505050565b7f556e6f7264657265644b65795365742831303229202d2041646472657373202860008201527f6b65792920646f6573206e6f7420657869737420696e20746865207365742e00602082015250565b6000612e02603f836125fa565b9150612e0d82612da6565b604082019050919050565b60006020820190508181036000830152612e3181612df5565b9050919050565b7f4e487b7100000000000000000000000000000000000000000000000000000000600052603160045260246000fd5b6000606082019050612e7c60008301866124a4565b612e8960208301856124a4565b612e966040830184612809565b949350505050565b600081519050612ead816124f8565b92915050565b600060208284031215612ec957612ec8612331565b5b6000612ed784828501612e9e565b91505092915050565b7f5361666545524332303a204552433230206f7065726174696f6e20646964206e60008201527f6f74207375636365656400000000000000000000000000000000000000000000602082015250565b6000612f3c602a836125fa565b9150612f4782612ee0565b604082019050919050565b60006020820190508181036000830152612f6b81612f2f565b9050919050565b7f416464726573733a20696e73756666696369656e742062616c616e636520666f60008201527f722063616c6c0000000000000000000000000000000000000000000000000000602082015250565b6000612fce6026836125fa565b9150612fd982612f72565b604082019050919050565b60006020820190508181036000830152612ffd81612fc1565b9050919050565b7f416464726573733a2063616c6c20746f206e6f6e2d636f6e7472616374000000600082015250565b600061303a601d836125fa565b915061304582613004565b602082019050919050565b600060208201905081810360008301526130698161302d565b9050919050565b600081519050919050565b60005b8381101561309957808201518184015260208101905061307e565b838111156130a8576000848401525b50505050565b60006130b982613070565b6130c38185612757565b93506130d381856020860161307b565b80840191505092915050565b60006130eb82846130ae565b915081905092915050565b600081519050919050565b6000601f19601f8301169050919050565b600061311d826130f6565b61312781856125fa565b935061313781856020860161307b565b61314081613101565b840191505092915050565b600060208201905081810360008301526131658184613112565b90509291505056fea2646970667358221220b28598a75d3dcf3eada6a72f53c24a6054faf8a54641efc4667deb18976f741364736f6c63430008090033a264697066735822122028e65ede2b353bb268aa121563599a8f48a6d22440872d63fd4ec3ab7d2d60a864736f6c63430008090033a26469706673582212207d2061166a5d1b5712ea628b5439722d0bf3b984cb8b77f07c8ff016316da11264736f6c63430008090033",
  "linkReferences": {},
  "deployedLinkReferences": {}
}