{
  "_format": "hh-sol-artifact-1",
  "contractName": "DDManagerFactory",
  "sourceName": "contracts/DDManagerFactory.sol",
  "abi": [
    {
      "anonymous": false,
      "inputs": [
        {
          "indexed": true,
          "internalType": "address",
          "name": "_contractOwner",
          "type": "address"
        },
        {
          "indexed": false,
          "internalType": "address",
          "name": "_contractAddress",
          "type": "address"
        }
      ],
      "name": "LogDDManagerCreation",
      "type": "event"
    },
    {
      "inputs": [],
      "name": "createMyDDManager",
      "outputs": [
        {
          "internalType": "address",
          "name": "",
          "type": "address"
        }
      ],
      "stateMutability": "nonpayable",
      "type": "function"
    },
    {
      "inputs": [],
      "name": "getMyDDManager",
      "outputs": [
        {
          "internalType": "address",
          "name": "",
          "type": "address"
        }
      ],
      "stateMutability": "view",
      "type": "function"
    },
    {
      "inputs": [],
      "name": "myDDManagerExist",
      "outputs": [
        {
          "internalType": "bool",
          "name": "",
          "type": "bool"
        }
      ],
      "stateMutability": "view",
      "type": "function"
    }
  ],
  "bytecode": "0x608060405234801561001057600080fd5b506149ce806100206000396000f3fe608060405234801561001057600080fd5b50600436106100415760003560e01c8063945c7cb114610046578063bb15f36314610064578063e7e5169114610082575b600080fd5b61004e6100a0565b60405161005b9190610307565b60405180910390f35b61006c6101ab565b604051610079919061033d565b60405180910390f35b61008a610253565b6040516100979190610307565b60405180910390f35b600080336040516100b0906102b9565b6100ba9190610307565b604051809103906000f0801580156100d6573d6000803e3d6000fd5b509050806000803373ffffffffffffffffffffffffffffffffffffffff1673ffffffffffffffffffffffffffffffffffffffff16815260200190815260200160002060006101000a81548173ffffffffffffffffffffffffffffffffffffffff021916908373ffffffffffffffffffffffffffffffffffffffff1602179055503373ffffffffffffffffffffffffffffffffffffffff167fa5d99b7eb87e22e614b8a90c815a7d39ce80f3359e95f1d24f92ca06036737078260405161019c9190610307565b60405180910390a28091505090565b6000806000803373ffffffffffffffffffffffffffffffffffffffff1673ffffffffffffffffffffffffffffffffffffffff16815260200190815260200160002060009054906101000a900473ffffffffffffffffffffffffffffffffffffffff169050600073ffffffffffffffffffffffffffffffffffffffff168173ffffffffffffffffffffffffffffffffffffffff161461024a57600161024d565b60005b91505090565b60008060003373ffffffffffffffffffffffffffffffffffffffff1673ffffffffffffffffffffffffffffffffffffffff16815260200190815260200160002060009054906101000a900473ffffffffffffffffffffffffffffffffffffffff16905090565b6146408061035983390190565b600073ffffffffffffffffffffffffffffffffffffffff82169050919050565b60006102f1826102c6565b9050919050565b610301816102e6565b82525050565b600060208201905061031c60008301846102f8565b92915050565b60008115159050919050565b61033781610322565b82525050565b6000602082019050610352600083018461032e565b9291505056fe60806040523480156200001157600080fd5b5060405162004640380380620046408339818101604052810190620000379190620001aa565b620000576200004b6200007460201b60201c565b6200007c60201b60201c565b6200006d816200007c60201b620004041760201c565b50620001dc565b600033905090565b60008060009054906101000a900473ffffffffffffffffffffffffffffffffffffffff169050816000806101000a81548173ffffffffffffffffffffffffffffffffffffffff021916908373ffffffffffffffffffffffffffffffffffffffff1602179055508173ffffffffffffffffffffffffffffffffffffffff168173ffffffffffffffffffffffffffffffffffffffff167f8be0079c531659141344cd1fd0a4f28419497f9722a3daafe3b4186f6b6457e060405160405180910390a35050565b600080fd5b600073ffffffffffffffffffffffffffffffffffffffff82169050919050565b6000620001728262000145565b9050919050565b620001848162000165565b81146200019057600080fd5b50565b600081519050620001a48162000179565b92915050565b600060208284031215620001c357620001c262000140565b5b6000620001d38482850162000193565b91505092915050565b61445480620001ec6000396000f3fe60806040523480156200001157600080fd5b5060043610620000945760003560e01c80638da5cb5b11620000635780638da5cb5b146200010b578063b533945d146200012d578063e5a97d31146200014d578063f2fde38b14620001835762000094565b80634ab0a9f81462000099578063715018a614620000bb5780637186372714620000c757806373085d2614620000e9575b600080fd5b620000a3620001a3565b604051620000b2919062000b2c565b60405180910390f35b620000c562000262565b005b620000d16200027a565b604051620000e0919062000c17565b60405180910390f35b620000f362000297565b60405162000102919062000c56565b60405180910390f35b62000115620002b4565b60405162000124919062000b2c565b60405180910390f35b6200014b600480360381019062000145919062000ca9565b620002dd565b005b6200016b600480360381019062000165919062000d0c565b62000350565b6040516200017a919062000b2c565b60405180910390f35b620001a160048036038101906200019b919062000ca9565b62000379565b005b6000620001af620004c8565b6000620001bb620002b4565b604051620001c99062000ad9565b620001d5919062000b2c565b604051809103906000f080158015620001f2573d6000803e3d6000fd5b5090506200020b8160016200054d90919063ffffffff16565b3373ffffffffffffffffffffffffffffffffffffffff167f089aeb21943a056b29ec2d8b6f6a6c4462bd8060828b1f28060335b4729efb218260405162000253919062000b2c565b60405180910390a28091505090565b6200026c620004c8565b62000278600062000404565b565b606062000286620004c8565b620002926001620006d3565b905090565b6000620002a3620004c8565b620002af600162000767565b905090565b60008060009054906101000a900473ffffffffffffffffffffffffffffffffffffffff16905090565b620002e7620004c8565b620002fd8160016200077890919063ffffffff16565b3373ffffffffffffffffffffffffffffffffffffffff167ff51a2555b2a7d99aeeed53d6890f18b8d4d737f3efaf559fea6d7abd39ea01008260405162000345919062000b2c565b60405180910390a250565b60006200035c620004c8565b62000372826001620009ab90919063ffffffff16565b9050919050565b62000383620004c8565b600073ffffffffffffffffffffffffffffffffffffffff168173ffffffffffffffffffffffffffffffffffffffff161415620003f6576040517f08c379a0000000000000000000000000000000000000000000000000000000008152600401620003ed9062000dc5565b60405180910390fd5b620004018162000404565b50565b60008060009054906101000a900473ffffffffffffffffffffffffffffffffffffffff169050816000806101000a81548173ffffffffffffffffffffffffffffffffffffffff021916908373ffffffffffffffffffffffffffffffffffffffff1602179055508173ffffffffffffffffffffffffffffffffffffffff168173ffffffffffffffffffffffffffffffffffffffff167f8be0079c531659141344cd1fd0a4f28419497f9722a3daafe3b4186f6b6457e060405160405180910390a35050565b620004d2620009f9565b73ffffffffffffffffffffffffffffffffffffffff16620004f2620002b4565b73ffffffffffffffffffffffffffffffffffffffff16146200054b576040517f08c379a0000000000000000000000000000000000000000000000000000000008152600401620005429062000e37565b60405180910390fd5b565b600073ffffffffffffffffffffffffffffffffffffffff168173ffffffffffffffffffffffffffffffffffffffff161415620005c0576040517f08c379a0000000000000000000000000000000000000000000000000000000008152600401620005b79062000ecf565b60405180910390fd5b620005cc828262000a01565b156200060f576040517f08c379a0000000000000000000000000000000000000000000000000000000008152600401620006069062000f8d565b60405180910390fd5b81600101819080600181540180825580915050600190039060005260206000200160009091909190916101000a81548173ffffffffffffffffffffffffffffffffffffffff021916908373ffffffffffffffffffffffffffffffffffffffff160217905550600182600101805490506200068a919062000fde565b8260000160008373ffffffffffffffffffffffffffffffffffffffff1673ffffffffffffffffffffffffffffffffffffffff168152602001908152602001600020819055505050565b6060816001018054806020026020016040519081016040528092919081815260200182805480156200075b57602002820191906000526020600020905b8160009054906101000a900473ffffffffffffffffffffffffffffffffffffffff1673ffffffffffffffffffffffffffffffffffffffff168152602001906001019080831162000710575b50505050509050919050565b600081600101805490509050919050565b62000784828262000a01565b620007c6576040517f08c379a0000000000000000000000000000000000000000000000000000000008152600401620007bd906200108f565b60405180910390fd5b6000826001016001620007d98562000767565b620007e5919062000fde565b81548110620007f957620007f8620010b1565b5b9060005260206000200160009054906101000a900473ffffffffffffffffffffffffffffffffffffffff16905060008360000160008473ffffffffffffffffffffffffffffffffffffffff1673ffffffffffffffffffffffffffffffffffffffff168152602001908152602001600020549050808460000160008473ffffffffffffffffffffffffffffffffffffffff1673ffffffffffffffffffffffffffffffffffffffff1681526020019081526020016000208190555081846001018281548110620008cc57620008cb620010b1565b5b9060005260206000200160006101000a81548173ffffffffffffffffffffffffffffffffffffffff021916908373ffffffffffffffffffffffffffffffffffffffff1602179055508360000160008473ffffffffffffffffffffffffffffffffffffffff1673ffffffffffffffffffffffffffffffffffffffff168152602001908152602001600020600090558360010180548062000970576200096f620010e0565b5b6001900381819060005260206000200160006101000a81549073ffffffffffffffffffffffffffffffffffffffff0219169055905550505050565b6000826001018281548110620009c657620009c5620010b1565b5b9060005260206000200160009054906101000a900473ffffffffffffffffffffffffffffffffffffffff16905092915050565b600033905090565b6000808360010180549050141562000a1d576000905062000ad3565b8173ffffffffffffffffffffffffffffffffffffffff16836001018460000160008573ffffffffffffffffffffffffffffffffffffffff1673ffffffffffffffffffffffffffffffffffffffff168152602001908152602001600020548154811062000a8e5762000a8d620010b1565b5b9060005260206000200160009054906101000a900473ffffffffffffffffffffffffffffffffffffffff1673ffffffffffffffffffffffffffffffffffffffff161490505b92915050565b61330f806200111083390190565b600073ffffffffffffffffffffffffffffffffffffffff82169050919050565b600062000b148262000ae7565b9050919050565b62000b268162000b07565b82525050565b600060208201905062000b43600083018462000b1b565b92915050565b600081519050919050565b600082825260208201905092915050565b6000819050602082019050919050565b62000b808162000b07565b82525050565b600062000b94838362000b75565b60208301905092915050565b6000602082019050919050565b600062000bba8262000b49565b62000bc6818562000b54565b935062000bd38362000b65565b8060005b8381101562000c0a57815162000bee888262000b86565b975062000bfb8362000ba0565b92505060018101905062000bd7565b5085935050505092915050565b6000602082019050818103600083015262000c33818462000bad565b905092915050565b6000819050919050565b62000c508162000c3b565b82525050565b600060208201905062000c6d600083018462000c45565b92915050565b600080fd5b62000c838162000b07565b811462000c8f57600080fd5b50565b60008135905062000ca38162000c78565b92915050565b60006020828403121562000cc25762000cc162000c73565b5b600062000cd28482850162000c92565b91505092915050565b62000ce68162000c3b565b811462000cf257600080fd5b50565b60008135905062000d068162000cdb565b92915050565b60006020828403121562000d255762000d2462000c73565b5b600062000d358482850162000cf5565b91505092915050565b600082825260208201905092915050565b7f4f776e61626c653a206e6577206f776e657220697320746865207a65726f206160008201527f6464726573730000000000000000000000000000000000000000000000000000602082015250565b600062000dad60268362000d3e565b915062000dba8262000d4f565b604082019050919050565b6000602082019050818103600083015262000de08162000d9e565b9050919050565b7f4f776e61626c653a2063616c6c6572206973206e6f7420746865206f776e6572600082015250565b600062000e1f60208362000d3e565b915062000e2c8262000de7565b602082019050919050565b6000602082019050818103600083015262000e528162000e10565b9050919050565b7f556e6f7264657265644b65795365742831303029202d204b65792063616e6e6f60008201527f7420626520307830000000000000000000000000000000000000000000000000602082015250565b600062000eb760288362000d3e565b915062000ec48262000e59565b604082019050919050565b6000602082019050818103600083015262000eea8162000ea8565b9050919050565b7f556e6f726465726564416464726573735365742831303129202d20416464726560008201527f737320286b65792920616c72656164792065786973747320696e20746865207360208201527f65742e0000000000000000000000000000000000000000000000000000000000604082015250565b600062000f7560438362000d3e565b915062000f828262000ef1565b606082019050919050565b6000602082019050818103600083015262000fa88162000f66565b9050919050565b7f4e487b7100000000000000000000000000000000000000000000000000000000600052601160045260246000fd5b600062000feb8262000c3b565b915062000ff88362000c3b565b9250828210156200100e576200100d62000faf565b5b828203905092915050565b7f556e6f7264657265644b65795365742831303229202d2041646472657373202860008201527f6b65792920646f6573206e6f7420657869737420696e20746865207365742e00602082015250565b600062001077603f8362000d3e565b9150620010848262001019565b604082019050919050565b60006020820190508181036000830152620010aa8162001068565b9050919050565b7f4e487b7100000000000000000000000000000000000000000000000000000000600052603260045260246000fd5b7f4e487b7100000000000000000000000000000000000000000000000000000000600052603160045260246000fdfe60806040523480156200001157600080fd5b506040516200330f3803806200330f8339818101604052810190620000379190620001e7565b620000576200004b620000b160201b60201c565b620000b960201b60201c565b6200006d81620000b960201b6200172e1760201c565b6000600660006101000a81548163ffffffff021916908363ffffffff1602179055506000600660046101000a81548160ff0219169083151502179055505062000219565b600033905090565b60008060009054906101000a900473ffffffffffffffffffffffffffffffffffffffff169050816000806101000a81548173ffffffffffffffffffffffffffffffffffffffff021916908373ffffffffffffffffffffffffffffffffffffffff1602179055508173ffffffffffffffffffffffffffffffffffffffff168173ffffffffffffffffffffffffffffffffffffffff167f8be0079c531659141344cd1fd0a4f28419497f9722a3daafe3b4186f6b6457e060405160405180910390a35050565b600080fd5b600073ffffffffffffffffffffffffffffffffffffffff82169050919050565b6000620001af8262000182565b9050919050565b620001c181620001a2565b8114620001cd57600080fd5b50565b600081519050620001e181620001b6565b92915050565b6000602082840312156200020057620001ff6200017d565b5b60006200021084828501620001d0565b91505092915050565b6130e680620002296000396000f3fe60806040526004361061014b5760003560e01c8063a7619e89116100b6578063e69d849d1161006f578063e69d849d146103f4578063ed88c68e1461041d578063f2fde38b14610427578063f75d19b914610450578063fc9ffe0214610479578063fec08d7e146104a45761014b565b8063a7619e89146102fa578063b997083814610325578063bfab3db91461034e578063c58156e014610365578063cf386a591461038e578063dd80fbd4146103cb5761014b565b80636bdebcc9116101085780636bdebcc914610238578063715018a61461024f57806372759aa714610266578063869e1a131461028f5780638da5cb5b146102a6578063a620b119146102d15761014b565b8063344974d9146101505780633b3790df1461017b57806348b77f75146101a4578063510791e6146101cd5780635137a7da146101e457806357fbb9df1461020f575b600080fd5b34801561015c57600080fd5b506101656104cd565b6040516101729190612252565b60405180910390f35b34801561018757600080fd5b506101a2600480360381019061019d91906122e1565b6104de565b005b3480156101b057600080fd5b506101cb60048036038101906101c69190612357565b610653565b005b3480156101d957600080fd5b506101e261081d565b005b3480156101f057600080fd5b506101f9610914565b604051610206919061239f565b60405180910390f35b34801561021b57600080fd5b50610236600480360381019061023191906123ba565b610927565b005b34801561024457600080fd5b5061024d610ab7565b005b34801561025b57600080fd5b50610264610b13565b005b34801561027257600080fd5b5061028d600480360381019061028891906123ba565b610b27565b005b34801561029b57600080fd5b506102a4610b46565b005b3480156102b257600080fd5b506102bb610bb3565b6040516102c891906123f6565b60405180910390f35b3480156102dd57600080fd5b506102f860048036038101906102f391906122e1565b610bdc565b005b34801561030657600080fd5b5061030f610de2565b60405161031c9190612420565b60405180910390f35b34801561033157600080fd5b5061034c60048036038101906103479190612467565b610e04565b005b34801561035a57600080fd5b50610363610e21565b005b34801561037157600080fd5b5061038c600480360381019061038791906123ba565b610f33565b005b34801561039a57600080fd5b506103b560048036038101906103b091906123ba565b6110d5565b6040516103c29190612420565b60405180910390f35b3480156103d757600080fd5b506103f260048036038101906103ed91906123ba565b611189565b005b34801561040057600080fd5b5061041b60048036038101906104169190612494565b6111a8565b005b6104256112a7565b005b34801561043357600080fd5b5061044e600480360381019061044991906123ba565b611306565b005b34801561045c57600080fd5b50610477600480360381019061047291906122e1565b61138a565b005b34801561048557600080fd5b5061048e61155c565b60405161049b9190612252565b60405180910390f35b3480156104b057600080fd5b506104cb60048036038101906104c69190612494565b611575565b005b60606104d960036117f2565b905090565b6104e6611884565b633b9aca0081600660009054906101000a900463ffffffff166105099190612503565b63ffffffff161115610550576040517f08c379a0000000000000000000000000000000000000000000000000000000008152600401610547906125c0565b60405180910390fd5b61056482600161190290919063ffffffff16565b80600560008473ffffffffffffffffffffffffffffffffffffffff1673ffffffffffffffffffffffffffffffffffffffff16815260200190815260200160002060006101000a81548163ffffffff021916908363ffffffff16021790555080600660008282829054906101000a900463ffffffff166105e39190612503565b92506101000a81548163ffffffff021916908363ffffffff1602179055508173ffffffffffffffffffffffffffffffffffffffff167fcf3b976d0436b612337e2db4f48172abc8af16d3c5cd009c898bd74339300d36826040516106479190612420565b60405180910390a25050565b61065b611884565b60008080600090505b61066e6001611a7e565b8163ffffffff161015610817576106958163ffffffff166001611a8f90919063ffffffff16565b9150600560008373ffffffffffffffffffffffffffffffffffffffff1673ffffffffffffffffffffffffffffffffffffffff16815260200190815260200160002060009054906101000a900463ffffffff1663ffffffff16633b9aca00856106fd919061260f565b6107079190612640565b925060008273ffffffffffffffffffffffffffffffffffffffff168460405161072f906126cb565b60006040518083038185875af1925050503d806000811461076c576040519150601f19603f3d011682016040523d82523d6000602084013e610771565b606091505b50509050806107b5576040517f08c379a00000000000000000000000000000000000000000000000000000000081526004016107ac9061272c565b60405180910390fd5b8273ffffffffffffffffffffffffffffffffffffffff167f901d6574876f702144893b5615ac1662cf8fc3af9a789d55318523582ea30c2f856040516107fb919061275b565b60405180910390a250808061080f90612776565b915050610664565b50505050565b610825611884565b61082e47610653565b60008060005b61083e6003611a7e565b8163ffffffff16101561090f576108658163ffffffff166003611a8f90919063ffffffff16565b92508291506108fc838373ffffffffffffffffffffffffffffffffffffffff166370a08231306040518263ffffffff1660e01b81526004016108a791906123f6565b60206040518083038186803b1580156108bf57600080fd5b505afa1580156108d3573d6000803e3d6000fd5b505050506040513d601f19601f820116820180604052508101906108f791906127b8565b611575565b808061090790612776565b915050610834565b505050565b600660049054906101000a900460ff1681565b61092f611884565b610943816003611ada90919063ffffffff16565b610982576040517f08c379a000000000000000000000000000000000000000000000000000000000815260040161097990612831565b60405180910390fd5b600081905060008173ffffffffffffffffffffffffffffffffffffffff166370a08231306040518263ffffffff1660e01b81526004016109c291906123f6565b60206040518083038186803b1580156109da57600080fd5b505afa1580156109ee573d6000803e3d6000fd5b505050506040513d601f19601f82011682018060405250810190610a1291906127b8565b9050610a46610a1f610bb3565b828473ffffffffffffffffffffffffffffffffffffffff16611bad9092919063ffffffff16565b610a4e610bb3565b73ffffffffffffffffffffffffffffffffffffffff168373ffffffffffffffffffffffffffffffffffffffff167f9060f013e2325841ebb42f269dde3d9c3cfdd43631c1234791bbab7ae168e59e83604051610aaa919061275b565b60405180910390a3505050565b610abf611884565b610ac7610b46565b7feb00b8082c686f550382b8ee41b26cf3316fb776751d374085547b4421f44e4a60405160405180910390a1610afb610bb3565b73ffffffffffffffffffffffffffffffffffffffff16ff5b610b1b611884565b610b25600061172e565b565b610b2f611884565b610b4381600361190290919063ffffffff16565b50565b610b4e611884565b610b56610e21565b60008060005b610b666003611a7e565b8163ffffffff161015610bae57610b8d8163ffffffff166003611a8f90919063ffffffff16565b9250829150610b9b83610927565b8080610ba690612776565b915050610b5c565b505050565b60008060009054906101000a900473ffffffffffffffffffffffffffffffffffffffff16905090565b610be4611884565b610bf8826001611ada90919063ffffffff16565b610c37576040517f08c379a0000000000000000000000000000000000000000000000000000000008152600401610c2e906128c3565b60405180910390fd5b600560008373ffffffffffffffffffffffffffffffffffffffff1673ffffffffffffffffffffffffffffffffffffffff16815260200190815260200160002060009054906101000a900463ffffffff1663ffffffff168163ffffffff161115610cd5576040517f08c379a0000000000000000000000000000000000000000000000000000000008152600401610ccc90612955565b60405180910390fd5b80600560008473ffffffffffffffffffffffffffffffffffffffff1673ffffffffffffffffffffffffffffffffffffffff16815260200190815260200160002060008282829054906101000a900463ffffffff16610d339190612975565b92506101000a81548163ffffffff021916908363ffffffff16021790555080600660008282829054906101000a900463ffffffff16610d729190612975565b92506101000a81548163ffffffff021916908363ffffffff1602179055508173ffffffffffffffffffffffffffffffffffffffff167fc71024bd021900ec858a28778c77898b9874ba5e2dd0b4406b76ca94b354787f82604051610dd69190612420565b60405180910390a25050565b6000610dec611884565b600660009054906101000a900463ffffffff16905090565b80600660046101000a81548160ff02191690831515021790555050565b610e29611884565b600047905060003373ffffffffffffffffffffffffffffffffffffffff1682604051610e54906126cb565b60006040518083038185875af1925050503d8060008114610e91576040519150601f19603f3d011682016040523d82523d6000602084013e610e96565b606091505b5050905080610eda576040517f08c379a0000000000000000000000000000000000000000000000000000000008152600401610ed1906129f5565b60405180910390fd5b610ee2610bb3565b73ffffffffffffffffffffffffffffffffffffffff167fbf4c5aa66ed18442bd8e8e3876d36dcd98043eedb61fee837986cd404d737c4d83604051610f27919061275b565b60405180910390a25050565b610f3b611884565b610f4f816001611ada90919063ffffffff16565b610f8e576040517f08c379a0000000000000000000000000000000000000000000000000000000008152600401610f85906128c3565b60405180910390fd5b600560008273ffffffffffffffffffffffffffffffffffffffff1673ffffffffffffffffffffffffffffffffffffffff16815260200190815260200160002060009054906101000a900463ffffffff16600660008282829054906101000a900463ffffffff16610ffe9190612975565b92506101000a81548163ffffffff021916908363ffffffff1602179055506000600560008373ffffffffffffffffffffffffffffffffffffffff1673ffffffffffffffffffffffffffffffffffffffff16815260200190815260200160002060006101000a81548163ffffffff021916908363ffffffff16021790555061108f816001611c3390919063ffffffff16565b8073ffffffffffffffffffffffffffffffffffffffff167f0ef40da7dc54329cca1f256fe0f066828e31c12195219e718619fd40f7eaad9060405160405180910390a250565b60006110df611884565b6110f3826001611ada90919063ffffffff16565b611132576040517f08c379a0000000000000000000000000000000000000000000000000000000008152600401611129906128c3565b60405180910390fd5b600560008373ffffffffffffffffffffffffffffffffffffffff1673ffffffffffffffffffffffffffffffffffffffff16815260200190815260200160002060009054906101000a900463ffffffff169050919050565b611191611884565b6111a5816003611c3390919063ffffffff16565b50565b6111bc826003611ada90919063ffffffff16565b6111fb576040517f08c379a00000000000000000000000000000000000000000000000000000000081526004016111f290612831565b60405180910390fd5b600082905061122d3330848473ffffffffffffffffffffffffffffffffffffffff16611e54909392919063ffffffff16565b8273ffffffffffffffffffffffffffffffffffffffff167f7d7a8a12946d8074e2e77b69daa2cd024bd2ffaea651a9194b0b347b17ac200f83604051611273919061275b565b60405180910390a260001515600660049054906101000a900460ff16151514156112a2576112a18383611575565b5b505050565b7f238397202cd1c526c4a92188dca9576aba56c3d627ee44f628b6dfd3ece54317346040516112d6919061275b565b60405180910390a160001515600660049054906101000a900460ff16151514156113045761130334610653565b5b565b61130e611884565b600073ffffffffffffffffffffffffffffffffffffffff168173ffffffffffffffffffffffffffffffffffffffff16141561137e576040517f08c379a000000000000000000000000000000000000000000000000000000000815260040161137590612a87565b60405180910390fd5b6113878161172e565b50565b611392611884565b6113a6826001611ada90919063ffffffff16565b6113e5576040517f08c379a00000000000000000000000000000000000000000000000000000000081526004016113dc906128c3565b60405180910390fd5b633b9aca0081600660009054906101000a900463ffffffff166114089190612503565b63ffffffff16111561144f576040517f08c379a0000000000000000000000000000000000000000000000000000000008152600401611446906125c0565b60405180910390fd5b80600560008473ffffffffffffffffffffffffffffffffffffffff1673ffffffffffffffffffffffffffffffffffffffff16815260200190815260200160002060008282829054906101000a900463ffffffff166114ad9190612503565b92506101000a81548163ffffffff021916908363ffffffff16021790555080600660008282829054906101000a900463ffffffff166114ec9190612503565b92506101000a81548163ffffffff021916908363ffffffff1602179055508173ffffffffffffffffffffffffffffffffffffffff167f9eb78aabb1d6fda44c96a290fead067062b6341f0c0645620cfbb13acc5a90ab826040516115509190612420565b60405180910390a25050565b6060611566611884565b61157060016117f2565b905090565b61157d611884565b611591826003611ada90919063ffffffff16565b6115d0576040517f08c379a00000000000000000000000000000000000000000000000000000000081526004016115c790612831565b60405180910390fd5b600082905060008080600090505b6115e86001611a7e565b8163ffffffff1610156117265761160f8163ffffffff166001611a8f90919063ffffffff16565b9150633b9aca00600560008473ffffffffffffffffffffffffffffffffffffffff1673ffffffffffffffffffffffffffffffffffffffff16815260200190815260200160002060009054906101000a900463ffffffff1663ffffffff16866116779190612640565b611681919061260f565b92506116ae82848673ffffffffffffffffffffffffffffffffffffffff16611bad9092919063ffffffff16565b8173ffffffffffffffffffffffffffffffffffffffff168673ffffffffffffffffffffffffffffffffffffffff167fe153fce8c26fd3e4726a55a854fbfe4167f28f00a18bdfc9cc1e0107367989f68560405161170b919061275b565b60405180910390a3808061171e90612776565b9150506115de565b505050505050565b60008060009054906101000a900473ffffffffffffffffffffffffffffffffffffffff169050816000806101000a81548173ffffffffffffffffffffffffffffffffffffffff021916908373ffffffffffffffffffffffffffffffffffffffff1602179055508173ffffffffffffffffffffffffffffffffffffffff168173ffffffffffffffffffffffffffffffffffffffff167f8be0079c531659141344cd1fd0a4f28419497f9722a3daafe3b4186f6b6457e060405160405180910390a35050565b60608160010180548060200260200160405190810160405280929190818152602001828054801561187857602002820191906000526020600020905b8160009054906101000a900473ffffffffffffffffffffffffffffffffffffffff1673ffffffffffffffffffffffffffffffffffffffff168152602001906001019080831161182e575b50505050509050919050565b61188c611edd565b73ffffffffffffffffffffffffffffffffffffffff166118aa610bb3565b73ffffffffffffffffffffffffffffffffffffffff1614611900576040517f08c379a00000000000000000000000000000000000000000000000000000000081526004016118f790612af3565b60405180910390fd5b565b600073ffffffffffffffffffffffffffffffffffffffff168173ffffffffffffffffffffffffffffffffffffffff161415611972576040517f08c379a000000000000000000000000000000000000000000000000000000000815260040161196990612b85565b60405180910390fd5b61197c8282611ada565b156119bc576040517f08c379a00000000000000000000000000000000000000000000000000000000081526004016119b390612c3d565b60405180910390fd5b81600101819080600181540180825580915050600190039060005260206000200160009091909190916101000a81548173ffffffffffffffffffffffffffffffffffffffff021916908373ffffffffffffffffffffffffffffffffffffffff16021790555060018260010180549050611a359190612c5d565b8260000160008373ffffffffffffffffffffffffffffffffffffffff1673ffffffffffffffffffffffffffffffffffffffff168152602001908152602001600020819055505050565b600081600101805490509050919050565b6000826001018281548110611aa757611aa6612c91565b5b9060005260206000200160009054906101000a900473ffffffffffffffffffffffffffffffffffffffff16905092915050565b60008083600101805490501415611af45760009050611ba7565b8173ffffffffffffffffffffffffffffffffffffffff16836001018460000160008573ffffffffffffffffffffffffffffffffffffffff1673ffffffffffffffffffffffffffffffffffffffff1681526020019081526020016000205481548110611b6257611b61612c91565b5b9060005260206000200160009054906101000a900473ffffffffffffffffffffffffffffffffffffffff1673ffffffffffffffffffffffffffffffffffffffff161490505b92915050565b611c2e8363a9059cbb60e01b8484604051602401611bcc929190612cc0565b604051602081830303815290604052907bffffffffffffffffffffffffffffffffffffffffffffffffffffffff19166020820180517bffffffffffffffffffffffffffffffffffffffffffffffffffffffff8381831617835250505050611ee5565b505050565b611c3d8282611ada565b611c7c576040517f08c379a0000000000000000000000000000000000000000000000000000000008152600401611c7390612d5b565b60405180910390fd5b6000826001016001611c8d85611a7e565b611c979190612c5d565b81548110611ca857611ca7612c91565b5b9060005260206000200160009054906101000a900473ffffffffffffffffffffffffffffffffffffffff16905060008360000160008473ffffffffffffffffffffffffffffffffffffffff1673ffffffffffffffffffffffffffffffffffffffff168152602001908152602001600020549050808460000160008473ffffffffffffffffffffffffffffffffffffffff1673ffffffffffffffffffffffffffffffffffffffff1681526020019081526020016000208190555081846001018281548110611d7857611d77612c91565b5b9060005260206000200160006101000a81548173ffffffffffffffffffffffffffffffffffffffff021916908373ffffffffffffffffffffffffffffffffffffffff1602179055508360000160008473ffffffffffffffffffffffffffffffffffffffff1673ffffffffffffffffffffffffffffffffffffffff1681526020019081526020016000206000905583600101805480611e1957611e18612d7b565b5b6001900381819060005260206000200160006101000a81549073ffffffffffffffffffffffffffffffffffffffff0219169055905550505050565b611ed7846323b872dd60e01b858585604051602401611e7593929190612daa565b604051602081830303815290604052907bffffffffffffffffffffffffffffffffffffffffffffffffffffffff19166020820180517bffffffffffffffffffffffffffffffffffffffffffffffffffffffff8381831617835250505050611ee5565b50505050565b600033905090565b6000611f47826040518060400160405280602081526020017f5361666545524332303a206c6f772d6c6576656c2063616c6c206661696c65648152508573ffffffffffffffffffffffffffffffffffffffff16611fac9092919063ffffffff16565b9050600081511115611fa75780806020019051810190611f679190612df6565b611fa6576040517f08c379a0000000000000000000000000000000000000000000000000000000008152600401611f9d90612e95565b60405180910390fd5b5b505050565b6060611fbb8484600085611fc4565b90509392505050565b606082471015612009576040517f08c379a000000000000000000000000000000000000000000000000000000000815260040161200090612f27565b60405180910390fd5b612012856120d8565b612051576040517f08c379a000000000000000000000000000000000000000000000000000000000815260040161204890612f93565b60405180910390fd5b6000808673ffffffffffffffffffffffffffffffffffffffff16858760405161207a9190613022565b60006040518083038185875af1925050503d80600081146120b7576040519150601f19603f3d011682016040523d82523d6000602084013e6120bc565b606091505b50915091506120cc8282866120fb565b92505050949350505050565b6000808273ffffffffffffffffffffffffffffffffffffffff163b119050919050565b6060831561210b5782905061215b565b60008351111561211e5782518084602001fd5b816040517f08c379a0000000000000000000000000000000000000000000000000000000008152600401612152919061308e565b60405180910390fd5b9392505050565b600081519050919050565b600082825260208201905092915050565b6000819050602082019050919050565b600073ffffffffffffffffffffffffffffffffffffffff82169050919050565b60006121b98261218e565b9050919050565b6121c9816121ae565b82525050565b60006121db83836121c0565b60208301905092915050565b6000602082019050919050565b60006121ff82612162565b612209818561216d565b93506122148361217e565b8060005b8381101561224557815161222c88826121cf565b9750612237836121e7565b925050600181019050612218565b5085935050505092915050565b6000602082019050818103600083015261226c81846121f4565b905092915050565b600080fd5b612282816121ae565b811461228d57600080fd5b50565b60008135905061229f81612279565b92915050565b600063ffffffff82169050919050565b6122be816122a5565b81146122c957600080fd5b50565b6000813590506122db816122b5565b92915050565b600080604083850312156122f8576122f7612274565b5b600061230685828601612290565b9250506020612317858286016122cc565b9150509250929050565b6000819050919050565b61233481612321565b811461233f57600080fd5b50565b6000813590506123518161232b565b92915050565b60006020828403121561236d5761236c612274565b5b600061237b84828501612342565b91505092915050565b60008115159050919050565b61239981612384565b82525050565b60006020820190506123b46000830184612390565b92915050565b6000602082840312156123d0576123cf612274565b5b60006123de84828501612290565b91505092915050565b6123f0816121ae565b82525050565b600060208201905061240b60008301846123e7565b92915050565b61241a816122a5565b82525050565b60006020820190506124356000830184612411565b92915050565b61244481612384565b811461244f57600080fd5b50565b6000813590506124618161243b565b92915050565b60006020828403121561247d5761247c612274565b5b600061248b84828501612452565b91505092915050565b600080604083850312156124ab576124aa612274565b5b60006124b985828601612290565b92505060206124ca85828601612342565b9150509250929050565b7f4e487b7100000000000000000000000000000000000000000000000000000000600052601160045260246000fd5b600061250e826122a5565b9150612519836122a5565b92508263ffffffff03821115612532576125316124d4565b5b828201905092915050565b600082825260208201905092915050565b7f746f74616c2070657263656e7420636f756e742063616e6e6f7420706173732060008201527f313030252e000000000000000000000000000000000000000000000000000000602082015250565b60006125aa60258361253d565b91506125b58261254e565b604082019050919050565b600060208201905081810360008301526125d98161259d565b9050919050565b7f4e487b7100000000000000000000000000000000000000000000000000000000600052601260045260246000fd5b600061261a82612321565b915061262583612321565b925082612635576126346125e0565b5b828204905092915050565b600061264b82612321565b915061265683612321565b9250817fffffffffffffffffffffffffffffffffffffffffffffffffffffffffffffffff048311821515161561268f5761268e6124d4565b5b828202905092915050565b600081905092915050565b50565b60006126b560008361269a565b91506126c0826126a5565b600082019050919050565b60006126d6826126a8565b9150819050919050565b7f4661696c656420746f2073656e64204574686572000000000000000000000000600082015250565b600061271660148361253d565b9150612721826126e0565b602082019050919050565b6000602082019050818103600083015261274581612709565b9050919050565b61275581612321565b82525050565b6000602082019050612770600083018461274c565b92915050565b6000612781826122a5565b915063ffffffff821415612798576127976124d4565b5b600182019050919050565b6000815190506127b28161232b565b92915050565b6000602082840312156127ce576127cd612274565b5b60006127dc848285016127a3565b91505092915050565b7f546f6b656e206e6f74206163636570746564206279206f776e65722e00000000600082015250565b600061281b601c8361253d565b9150612826826127e5565b602082019050919050565b6000602082019050818103600083015261284a8161280e565b9050919050565b7f6164647265737320686173206e6f74206265656e20616464656420746f20616c60008201527f6c6f636174696f6e2e0000000000000000000000000000000000000000000000602082015250565b60006128ad60298361253d565b91506128b882612851565b604082019050919050565b600060208201905081810360008301526128dc816128a0565b9050919050565b7f63616e6e6f74207375627472616374206d6f7265207468616e20616c7265616460008201527f7920616c6c6f63617465642e0000000000000000000000000000000000000000602082015250565b600061293f602c8361253d565b915061294a826128e3565b604082019050919050565b6000602082019050818103600083015261296e81612932565b9050919050565b6000612980826122a5565b915061298b836122a5565b92508282101561299e5761299d6124d4565b5b828203905092915050565b7f4661696c656420746f2073656e642045746865722e0000000000000000000000600082015250565b60006129df60158361253d565b91506129ea826129a9565b602082019050919050565b60006020820190508181036000830152612a0e816129d2565b9050919050565b7f4f776e61626c653a206e6577206f776e657220697320746865207a65726f206160008201527f6464726573730000000000000000000000000000000000000000000000000000602082015250565b6000612a7160268361253d565b9150612a7c82612a15565b604082019050919050565b60006020820190508181036000830152612aa081612a64565b9050919050565b7f4f776e61626c653a2063616c6c6572206973206e6f7420746865206f776e6572600082015250565b6000612add60208361253d565b9150612ae882612aa7565b602082019050919050565b60006020820190508181036000830152612b0c81612ad0565b9050919050565b7f556e6f7264657265644b65795365742831303029202d204b65792063616e6e6f60008201527f7420626520307830000000000000000000000000000000000000000000000000602082015250565b6000612b6f60288361253d565b9150612b7a82612b13565b604082019050919050565b60006020820190508181036000830152612b9e81612b62565b9050919050565b7f556e6f726465726564416464726573735365742831303129202d20416464726560008201527f737320286b65792920616c72656164792065786973747320696e20746865207360208201527f65742e0000000000000000000000000000000000000000000000000000000000604082015250565b6000612c2760438361253d565b9150612c3282612ba5565b606082019050919050565b60006020820190508181036000830152612c5681612c1a565b9050919050565b6000612c6882612321565b9150612c7383612321565b925082821015612c8657612c856124d4565b5b828203905092915050565b7f4e487b7100000000000000000000000000000000000000000000000000000000600052603260045260246000fd5b6000604082019050612cd560008301856123e7565b612ce2602083018461274c565b9392505050565b7f556e6f7264657265644b65795365742831303229202d2041646472657373202860008201527f6b65792920646f6573206e6f7420657869737420696e20746865207365742e00602082015250565b6000612d45603f8361253d565b9150612d5082612ce9565b604082019050919050565b60006020820190508181036000830152612d7481612d38565b9050919050565b7f4e487b7100000000000000000000000000000000000000000000000000000000600052603160045260246000fd5b6000606082019050612dbf60008301866123e7565b612dcc60208301856123e7565b612dd9604083018461274c565b949350505050565b600081519050612df08161243b565b92915050565b600060208284031215612e0c57612e0b612274565b5b6000612e1a84828501612de1565b91505092915050565b7f5361666545524332303a204552433230206f7065726174696f6e20646964206e60008201527f6f74207375636365656400000000000000000000000000000000000000000000602082015250565b6000612e7f602a8361253d565b9150612e8a82612e23565b604082019050919050565b60006020820190508181036000830152612eae81612e72565b9050919050565b7f416464726573733a20696e73756666696369656e742062616c616e636520666f60008201527f722063616c6c0000000000000000000000000000000000000000000000000000602082015250565b6000612f1160268361253d565b9150612f1c82612eb5565b604082019050919050565b60006020820190508181036000830152612f4081612f04565b9050919050565b7f416464726573733a2063616c6c20746f206e6f6e2d636f6e7472616374000000600082015250565b6000612f7d601d8361253d565b9150612f8882612f47565b602082019050919050565b60006020820190508181036000830152612fac81612f70565b9050919050565b600081519050919050565b60005b83811015612fdc578082015181840152602081019050612fc1565b83811115612feb576000848401525b50505050565b6000612ffc82612fb3565b613006818561269a565b9350613016818560208601612fbe565b80840191505092915050565b600061302e8284612ff1565b915081905092915050565b600081519050919050565b6000601f19601f8301169050919050565b600061306082613039565b61306a818561253d565b935061307a818560208601612fbe565b61308381613044565b840191505092915050565b600060208201905081810360008301526130a88184613055565b90509291505056fea2646970667358221220d30a56eb0099940d1cb9008b211f997eb36684185a145dfc953958298b6fb8ed64736f6c63430008090033a26469706673582212204486bf887f80a8694f24d5a306a3d6ddb7bcfb5e8cc1072048f6d5027796297d64736f6c63430008090033a2646970667358221220aae6864a760df2da5130f64f0f6e492d0c52ebb410bdaa7a1bc1383acbf69e7c64736f6c63430008090033",
  "linkReferences": {},
  "deployedLinkReferences": {}
}